:100000000C94A0060C94C8060C94C8060C94C80660
:100010000C94C8060C94C8060C94C8060C94C80628
:100020000C94C8060C94C8060C94620E0C94D10E65
:100030000C94C8060C94C8060C94C8060C94C80608
:100040000C94C8060C94C8060C94C8060C94C806F8
:100050000C94C8060C94C8060C94C8060C94180E90
:100060000C94C8060C94C8060C94C8060C94C806D8
:100070000C94C8060C94C8060C94C8060C94C806C8
:100080000C94C8060C94C8060C94C8060C94C806B8
:100090000C94C8060C94C8060C94C8060C94C806A8
:1000A0000C94C8060C94C8060C94C80610100000E6
:1000B000408870004498E07A4442382050000000A4
:1000C00000000304048FFFF484020000000000001D
:1000D00010E000044890E27C4240382050000000CC
:1000E00001020204048FFFF48201000000000000FE
:1000F000408870004498E07A444238205000000064
:1001000000000304048FFFF48402000000000000DC
:1001100010E000044890E27C42403820500000008B
:1001200001020204048FFFF482010000000010109D
:1001300000000000808040404040404080000000BF
:1001400000384641404040402040202040434C3051
:10015000000000008080404040404040800000009F
:1001600000384641404040402040202040434C3031
:10017000000000008080404040404040800000007F
:1001800000384641404040402040202040434C3011
:10019000000000008080404040404040800000005F
:1001A00000384641404040402040202040434C30F1
:1001B000000040A0A09090600000001824241800C7
:1001C0000038444444444830000000205048300087
:1001D00000081414080000000000000000040A04D5
:1001E0000038444444444830000000002050483067
:1001F000101000609804C2891971E181C1613284D4
:1002000078000000010204090B8EFFFF8404020144
:1002100000000000609804C28919F1E181C16132D7
:1002200004F8000000010204098BFFFF890808049C
:1002300003000000609804C28919F1E181C16132B4
:1002400004F8000000010204098BFFFF890808047C
:10025000030000609804C2891971E181C161328490
:1002600078000000010204090B8EFFFF84040201E4
:1002700000001010000814080000048A04000008A0
:100280009408000042A542000020512201000021F4
:1002900052210000000814080000048A040000082D
:1002A0009408000042A542000020512201000021D4
:1002B00052210000000814080000048A040000080D
:1002C0009408000042A542000020512201000021B4
:1002D00052210000000814080000048A04000008ED
:1002E0009408000042A54200002051220100002194
:1002F00052210000101080C040C0800267FDC7027C
:100300001038E838100000197F31000000010000AB
:1003100000060F03000080C040C0800267FDC702D6
:100320001038E838100000197F310000000100008B
:1003300000060F0300000080C040C08062F7CD07B8
:100340000210B868381000187D3301000001000069
:1003500000060F0300000080C040C08062F7CD0798
:100360000210B868381000187D3301000001000049
:1003700000060F0300001010C020A02040800000E5
:10038000E01C020915110E000102020100010E001D
:10039000030078060101060000C020A02040800074
:1003A00000E01C020915110E0001020201000F00FD
:1003B0000300700C020109060000C020A020C0004C
:1003C00000E01C020915110E0000000100000F00E2
:1003D0000300700C0201090600C020A0204080002C
:1003E00000E01C020915110E0001020201000F00BD
:1003F0000300700C0201090600000000003E5B4F84
:100400005B3E3E6B4F6B3E1C3E7C3E1C183C7E3C74
:10041000181C577D571C1C5E7F5E1C00183C180082
:10042000FFE7C3E7FF0018241800FFE7DBE7FF3012
:10043000483A060E2629792926407F050507407F80
:1004400005253F5A3CE73C5A7F3E1C1C08081C1CF3
:100450003E7F14227F22145F5F005F5F06097F01E9
:100460007F006689956A606060606094A2FFA294D4
:1004700008047E040810207E201008082A1C0808A2
:100480001C2A08081E101010100C1E0C1E0C3038F0
:100490003E3830060E3E0E06000000000000005FF1
:1004A00000000007000700147F147F14242A7F2A0D
:1004B00012231308646236495620500008070300CF
:1004C000001C2241000041221C002A1C7F1C2A081B
:1004D000083E08080080703000080808080800007E
:1004E00060600020100804023E5149453E00427FF2
:1004F000400072494949462141494D331814127F41
:100500001027454545393C4A4949314121110907E0
:100510003649494936464949291E00001400000061
:100520004034000000081422411414141414004133
:1005300022140802015909063E415D594E7C1211F0
:10054000127C7F494949363E414141227F41414128
:100550003E7F494949417F090909013E41415173A3
:100560007F0808087F00417F41002040413F017F14
:10057000081422417F404040407F021C027F7F04DC
:1005800008107F3E4141413E7F090909063E415125
:10059000215E7F09192946264949493203017F0115
:1005A000033F4040403F1F2040201F3F4038403F16
:1005B000631408146303047804036159494D43002C
:1005C0007F4141410204081020004141417F040263
:1005D00001020440404040400003070800205454FA
:1005E00078407F28444438384444442838444428D8
:1005F0007F385454541800087E090218A4A49C782B
:100600007F0804047800447D40002040403D007F86
:100610001028440000417F40007C047804787C0866
:100620000404783844444438FC182424181824243A
:1006300018FC7C08040408485454542404043F441F
:10064000243C4040207C1C2040201C3C4030403C4E
:1006500044281028444C9090907C4464544C4400AE
:100660000836410000007700000041360800020112
:100670000204023C2623263C1EA1A161123A4040FE
:10068000207A38545455592155557941215454787C
:1006900041215554784020545579400C1E52721215
:1006A000395555555939545454593955545458009D
:1006B00000457C410002457D420001457C40F02917
:1006C0002429F0F0282528F07C5455450020545466
:1006D0007C547C0A097F49324949493232484848AA
:1006E00032324A4848303A4141217A3A42402078F1
:1006F000009DA0A07D39444444393D4040403D3CEC
:1007000024FF2424487E4943662B2FFC2F2BFF090E
:1007100029F620C0887E0903205454794100004402
:100720007D413048484A32384040227A007A0A0AED
:10073000727D0D19317D2629292F28262929292660
:1007400030484D4020380808080808080808382FA5
:1007500010C8ACBA2F102834FA00007B000008142F
:100760002A142222142A14089500220095AA005562
:1007700000AAAA55AA55AA000000FF00101010FFF9
:1007800000141414FF001010FF00FF1010F010F000
:10079000141414FC001414F700FF0000FF00FF14F1
:1007A00014F404FC141417101F10101F101F14143D
:1007B000141F00101010F0000000001F1010101087
:1007C0001F10101010F010000000FF10101010107B
:1007D00010101010FF10000000FF140000FF00FFB9
:1007E00000001F10170000FC04F414141710171455
:1007F00014F404F40000FF00F71414141414141477
:10080000F700F7141414171410101F101F141414E9
:10081000F4141010F010F000001F101F0000001F53
:1008200014000000FC140000F010F01010FF10FF86
:10083000141414FF141010101F00000000F010FF1B
:10084000FFFFFFFFF0F0F0F0F0FFFFFF00000000FF
:1008500000FFFF0F0F0F0F0F38444438447C2A2A43
:100860003E147E02020606027E027E026355494164
:10087000633844443C04407E201E2006027E02026F
:1008800099A5E7A5991C2A492A1C4C7201724C3083
:100890004A4D4D303048784830BC625A463D3E495A
:1008A0004949007E0101017E2A2A2A2A2A44445FFE
:1008B000444440514A444040444A51400000FF01F2
:1008C00003E080FF000008086B6B08361236243600
:1008D000060F090F06000018180000001010003065
:1008E00040FF0101001F01011E00191D1712003CED
:1008F0003C3C3C000000000000B00000A170E15052
:10090000964F26900F1D070C009669004AE44A0096
:1009100048444000806810000F99FB8F9DBDBBFBD1
:1009200077D4D4DF1F1A1AFE7F5D5DFF805A000066
:10093000A0A4AA0010BA3400FF5953F3FF9B9B9E5A
:10094000FFB9B996FF9595D19FF4940FFC295F915B
:10095000FF1838F8FF9294FFFF95D5F7BFB5DDD7A4
:10096000F18F81F1F788C8F779C6467909FD9B09AF
:100970000196F8008281828050716200775656009D
:1009800076763700A2B77301077206007827500009
:1009900073347400775176007F55F700477110006B
:1009A000324772007364730015A27500616794008A
:1009B000009F6060F4F2F6F2080B000202020000F1
:1009C00009040000010202000005240010010524B2
:1009D0000101010424020605240600010705810324
:1009E00010004009040100020A000000070502028D
:1009F00040000007058302400000040309041201BF
:100A00000002EF0201404123368000010102030190
:100A100041726475696E6F204C4C43004142503105
:100A200033303900F0F89C8E8783878E9CF8F00075
:100A300000FEFF0303030303070EFCF80000FEFFA4
:100A40000303030303070EFCF80000FFFF00000090
:100A500000000000FFFF0000FEFF8383838383C745
:100A6000EE7C380000F8FC0E07030303070EFCF8C9
:100A700000003F7FE0C08080C0E07F3FFFFF0101BA
:100A80000101010101FFFF0000FFFF0C0C0C0C1C19
:100A90003E77E3C100007FFFC0C0C0C0C0E0703F30
:100AA0001F00001F3F70E0C0C0C0E0703F1F00008B
:100AB0007FFFC1C1C1C1C1E3773E1C00001F3F7071
:100AC000E0C0C0C0E0703F1F000000000001FFFF59
:100AD00001000000D5F0E3E3A1C881CFD9F1AF2038
:100AE000007603F4027202F0012E01AC0008081037
:100AF000181CDE73311000100800182442424444D0
:100B00004422222242422418000018244242422257
:100B10002424444242422418000018244222222263
:100B200042424444444224180000182424224242F1
:100B300042424242442424180010080000183C3C61
:100B40003838381C1C1C3C3C1800000000183C3C89
:100B50003C1C1818383C3C3C1800000000183C1C99
:100B60001C1C3C3C3838383C180000000018181C8D
:100B70003C3C3C3C3C3C381818000010081824420F
:100B8000828282828141414181814224181824421B
:100B9000818141414242428181814224181824428C
:100BA000414141414182828282824224181824427A
:100BB0004241818181818181824242241810080052
:100BC000183C7C7C7C7C7E3E3E3E7E7E3C18000059
:100BD000183C7E7E3E3E3C3C3C7E7E7E3C180000C7
:100BE000183C3E3E3E3E3E7C7C7C7C7C3C180000BB
:100BF000183C3C3E7E7E7E7E7E7E7C3C3C18001215
:100C0000083C42818181814222224141818282814C
:100C100081423C3844424221214141818182828289
:100C2000818182423C1C224141414181818141417B
:100C3000418182828244383844828241414141412B
:100C400041418182828282443810083C7E7E7E7ED1
:100C50003C1C1C3E3E7E7C7C7E7E3C383C3C1E1E0A
:100C60003E3E7E7E7C7C7C7E7E7C3C1C3E3E3E3ED0
:100C70007E7E7E3E3E3E7E7C7C7C38387C7C3E3E6A
:100C80003E3E3E3E3E7E7C7C7C7C380A108040802E
:100C90000000000000000041A2411C221C7088706E
:100CA0000000800000000080408000070807708876
:100CB0007041A24100000000804080008000001CC4
:100CC000221C41A24107080700000000008000002C
:100CD0000000007088700708071C221C000A100022
:100CE000800000000000000000004100001C000027
:100CF00070000000000000000000800000000700FD
:100D000000700000410000000000008000000000B2
:100D100000001C000041000007000000000000006F
:100D20000000000000007000000700001C0000052B
:100D3000080C6F3F1B090508307C5F4C30003611F2
:100D400011241FBECFEFDAE0DEBFCDBF11E0A0E07F
:100D5000B1E0E6E0F6E302C005900D92A436B107DB
:100D6000D9F727E0A4E6B1E001C01D92A934B2078B
:100D7000E1F716E0C0EAD6E004C02197FE010E9428
:100D80002318CF39D107C9F70E9473110C94011BA6
:100D90000C94000090E0E1E3F3E091119FEF8FEFFE
:100DA00091939193919391938150D0F70895E1E3BA
:100DB000F3E0A0E0B8E000800EBC8111012C119797
:100DC000A0FDFDCF0192B9F70DB408959C01CB01B0
:100DD0008770992791E001C0990F8A95EAF777FF0C
:100DE00002C0695F7F4FFB0183E0F595E7958A9527
:100DF000E1F7F695FE2FEE27F795E795E20FF31F43
:100E0000EF5CFC4F26E0215031F08191DF0111971A
:100E1000892B8C93F8CF0895FC018091E002882300
:100E200011F13FB7F89482E08093E9002091F2003D
:100E3000822F90E01816190614F481E090E08823C0
:100E400039F0289844E64093DF024091F100408356
:100E5000222339F02091F200211103C02BE62093C8
:100E6000E8003FBF08958FEF9FEF08952FB7F894E4
:100E700083E08093E9009091E800892F807295FFCC
:100E800004C09091F20080E4891B2FBF08958091E7
:100E9000D70281110DC082E08093D30284E0809359
:100EA000D4021092D6021092D50281E08093D7022C
:100EB00083ED92E00895FC010E946F07319728F0BE
:100EC00068517C4F8F4F9F4FF9CFAB01FC010E94BF
:100ED0006F07641775078E079F07C8F30895AFEC77
:100EE000B2E02FB7F8947D918D919C9166B52FBF9C
:100EF000A89B05C06F3F18F47F5F8F4F9F4F22E084
:100F0000660F771F881F991F2A95D1F70895409182
:100F1000660150916701209164013091650142178B
:100F20005307B4F49091E8009570E1F39091E800D4
:100F300092FD19C08093F100809166019091670144
:100F400001968F739927892B19F48EEF8093E8000F
:100F5000809166019091670101969093670180935B
:100F6000660181E0089580E00895DF92EF92FF929C
:100F70000F931F93CF93DF93D82E8A01EB017B0150
:100F8000E40EF51ECE15DF0559F0D7FE12C0FE01A6
:100F900084910E94870721968111F4CF0FEF1FEFF4
:100FA000C801DF91CF911F910F91FF90EF90DF90DB
:100FB00008958881EECF0F931F93CF93DF931F92F5
:100FC000CDB7DEB782E0898342E450E068EB79E098
:100FD00080E80E94B5070E944707DC0112960D9138
:100FE0001C910115110589F0D801ED91FC91028049
:100FF000F381E02DBE016F5F7F4FC801099597FD1A
:1010000004C0F80100851185ECCF89810F90DF9134
:10101000CF911F910F910895615030F02091F10010
:10102000FC0120830196F8CF289884E68093DF02A4
:101030000895AF92BF92CF92DF92EF92FF920F93FB
:101040001F93CF93DF936C017B018B01040F151F5E
:10105000EB015E01AE18BF08C017D10759F06991C6
:10106000D601ED91FC910190F081E02DC60109952A
:10107000892B79F7C501DF91CF911F910F91FF90D7
:10108000EF90DF90CF90BF90AF9008958F929F9296
:10109000AF92BF92CF92DF92EF92FF920F931F9386
:1010A000CF93DF936C017B018A0180910B01882330
:1010B00009F45AC08091E002882309F455C0809158
:1010C0006A0180FF05C08091E00082608093E000AB
:1010D000E801B12C8AEFA82E93E0892E2AE3922E04
:1010E000209711F4BB20C9F10E943607811108C076
:1010F000AA94AA20C9F181E090E00E945B07F0CF9A
:101100008C171D0611F00CF08C2F9FB7F89480926D
:10111000E9002091E80025FD02C09FBFE1CF282F04
:1011200030E0C21BD30BF701815020F04191409376
:10113000F100FACFE20EF31EBB2021F09092E800FE
:10114000B12CEBCF8091E80085FDE7CF9092E800CD
:10115000BB24B394209709F3F3CF5D9884E6809382
:101160006901101611063CF081E090E0F6019383CE
:10117000828310E000E0C801DF91CF911F910F91B1
:10118000FF90EF90DF90CF90BF90AF909F908F90A7
:101190000895CF93DF931F92CDB7DEB76983DC014B
:1011A000ED91FC910280F381E02D41E050E0BE0121
:1011B0006F5F7F4F09950F90DF91CF91089583E086
:1011C0008093E9008091F200882319F08AE38093EC
:1011D000E80008950E94360790E00895CF93DF93CA
:1011E0001F92CDB7DEB7FC018485958597FD08C0B9
:1011F0002FEF3FEF358724870F90DF91CF91089530
:10120000CE0101960E940C07019719F4898190E0A4
:10121000F3CF8FEF9FEFF0CF0F931F93CF93DF9319
:101220001F92CDB7DEB78C01FC018485958597FFB1
:101230000BC0CE0101960E940C07019771F48981C1
:1012400090E0F80195878487F801848595850F9053
:10125000DF91CF911F910F9108958FEF9FEFF1CF05
:10126000FC018485958597FD0BC09FB7F89482E0BB
:101270008093E9008091F2009FBF90E0019608956D
:101280009FB7F89482E08093E9008091F2009FBFBD
:1012900090E008956F927F928F929F92AF92BF924B
:1012A000CF92DF92EF92FF920F931F93CF93DF9332
:1012B0004C017B01C22F102F98E0A92EB12C642E77
:1012C000669466946694712CCA0187709927892B5D
:1012D00079F5D40117962D913C91C7019927B90151
:1012E0000E94FB17269DF001279DF00D369DF00D05
:1012F00011248E0F9F1FD4011596ED91FC91E80FDC
:10130000F91F2081111112C0C095C223C083DF9143
:10131000CF911F910F91FF90EF90DF90CF90BF90F2
:10132000AF909F908F907F906F900895C22BEECFDB
:10133000D0E04770C42ED12C83E0660C771C8A95D0
:10134000E1F79E0101C0220F4A95EAF7012FA301A0
:10135000B701C4010E944A09A301485F5F4FC5015C
:101360008C199D0902C0D595C7958A95E2F7A7CF3C
:101370005F926F927F928F929F92AF92BF92CF9225
:10138000DF92EF92FF920F931F93CF93DF93EC01C5
:101390006A30F1F48D859E859C878B878B892F859C
:1013A0003889820F932F911D988B8F8781E090E071
:1013B000DF91CF911F910F91FF90EF90DF90CF9031
:1013C000BF90AF909F908F907F906F905F900895A7
:1013D000AB84BC84693031F429E0A20EB11CBC8618
:1013E000AB86E4CF3DEFA3163FEFB3060CF45BC032
:1013F0008F819885A816B9060CF055C0CF84D8887F
:101400008DEFC8168FEFD8060CF44DC089859A85EC
:10141000C816D9060CF047C060320CF46FE780EEB6
:10142000860F9FE9960F9A3118F49FEFC91AD90ACF
:101430008C3011F08B3119F42FEFC21AD20A869535
:1014400034E0839FC00111249C012850374F79015B
:10145000912C812C162F1170F701E80DF91D549075
:1014600011112BC0352D3F70532E3501680C791C9E
:101470008C81882351F001E08989811100E02FE0FF
:10148000A601B301CE010E944A090989252DA601B2
:10149000B301CE010E944A098FEF881A980A94E09E
:1014A00089169104C9F68A8990E004962B853C85BB
:1014B000820F931F9C878B8779CF52948FE058229D
:1014C000D4CF4F925F926F927F928F929F92AF9202
:1014D000BF92CF92DF92EF92FF920F931F93CF9321
:1014E000DF934C015901FC2DC02FD0E0CE01880DB7
:1014F000991D181619060CF06CC020E8821691048C
:101500000CF067C09B012E0D311D121613060CF056
:1015100060C0603471050CF05CC04115510509F4E0
:1015200058C0E62FE770FE2EDB0177FD179633E0FB
:10153000B595A7953A95E1F73A2F77FF04C0FF20BC
:1015400011F03FEF3A0F662777276819790997FC62
:1015500002C070E060E0803891050CF44BC090E868
:101560009819961BA32F032E000CBB0B1A2F109556
:101570003F3F0CF010E021E08E2D877009F420E051
:10158000E694E694E694E20EAE0DB11D19971CF0B8
:1015900028E0E22EE31AE11A310F20E83203D001ED
:1015A0001124A80DB91DA60FB71F019F600D711D55
:1015B0001124460F571F0F2D0F2C000C110BF33069
:1015C00009F41CC1C8F4F13009F4D0C0F23009F4B8
:1015D0007CC0DF91CF911F910F91FF90EF90DF9032
:1015E000CF90BF90AF909F908F907F906F905F90C3
:1015F0004F900895902FB5CFFA3FB1F1232F2E0DC4
:10160000FB3F39F7321729F3BD016F5C7C4FD12CBA
:10161000C12CC91608F0A4C0FA01EC0DFD1DE4911F
:10162000F0E04F01002E02C0880C991C0A94E2F7EA
:1016300037FD06C0FB018081E82CE0948E21808379
:10164000FF2061F0373054F45B01F0E8AF0EB11CBD
:10165000E92CE094F50180818E218083FFEFCF1A81
:10166000DF0A6F5F7F4FD5CF232F2E0D321709F47E
:10167000B0CFBD016F5C7C4FD12CC12CC91608F0D6
:1016800069C0FA01EC0DFD1DE491F0E04F01002E60
:1016900002C0880C991C0A94E2F737FD04C0FB01D4
:1016A000808188298083FF2051F0373044F45B012A
:1016B000F0E8AF0EB11CF501808189298083FFEF2E
:1016C000CF1ADF0A6F5F7F4FD9CF6FEF70E00F2C1B
:1016D00002C0660F771F0A94E2F760957095772E27
:1016E000232F2E0D321709F474CFFD01EF5CFC4F50
:1016F0006F01B12CA12CA91638F5FA01EA0DFB1DDA
:10170000E491F0E02F01002E02C0440C551C0A9415
:10171000E2F737FD05C0F6018081862384298083A6
:10172000FF2059F037304CF44601F0E88F0E911C41
:10173000F4018081872185298083FFEFAF1ABF0ADA
:101740008FEFC81AD80AD7CF3F5F4C0F5D1FA05844
:10175000BF4FC8CF3F5F4C0F5D1FA058BF4F86CF14
:101760003F5F4C0F5D1FA058BF4F4CCF6A0D7B1DD4
:10177000232F2E0D321709F42CCFFD01EF5CFC4F07
:101780006F01B12CA12CA91688F5FB01EA0DFB1DF8
:101790008490912C002E02C0880C991C0A94E2F7C8
:1017A00080949094FA01EA0DFB1D6490712C002E38
:1017B00002C0660C771C0A94E2F737FD05C0F601FB
:1017C0008081882186298083FF2049F037303CF4CE
:1017D000F601E058FF4F8081892187298083FFEF40
:1017E000AF1ABF0A8FEFC81AD80ACDCF3F5F4C0F90
:1017F0005D1F6C0F7D1FA058BF4FBCCFC92ED12CD1
:10180000FA01E60FF71FAF5CBC4F00E810E00C19BF
:101810001D09CC19DD09BE01660F771F41E050E0BC
:101820006A010F2C01C0CC0C0A94EAF7592F2E2D17
:10183000792ECF93DF93ED01EF96EF962296859068
:10184000A590FF2059F08C9C4001AC9C5001373092
:101850002CF4E880B094EB20E928E99233233AF0A5
:10186000EC90A094EA20E828ED920C94380C1196A4
:101870005A9529F72A9551F0572D33951124E60FE3
:10188000F11DA00FB11DC00FD11DD9CFDF91CF9198
:1018900011249FCECF92EF920F934115510541F144
:1018A000FA0104913196E4904E5F5F4F2223D1F00C
:1018B000A1E0B0E03E2D377011F4B0E0A0E0EE2DD5
:1018C000E695E695E695EA0FFB2FF11D0E9FD001F8
:1018D0000F9FB00D11242A9FF0012B9FF00D1124B2
:1018E0004E0F5F1F2AEFC22E30E020E00E94610AF7
:1018F0000F91EF90CF900895CF92EF920F93CF93E7
:10190000DF93DC01FA0104913196E4904E5F5F4F62
:101910002223D1F0C1E0D0E09E2D977011F4D0E0E9
:10192000C0E0EE2DE695E695E695EC0FFD2FF11D56
:101930000E9FE0010F9FD00D11242C9FC0012D9F01
:10194000900D1124480F591F8BEFC82E30E020E076
:10195000CD010E94610ADF91CF910F91EF90CF905E
:10196000089590E00C945B078FB18095807F669B13
:1019700088601C9B846008955C988EBD00000DB447
:1019800007FEFDCF5C9A089590E1282F81E061FD6C
:1019900084E060FD880F62FD8295687F969FD0018C
:1019A0001124A20FAF5CBC4F0C90082A40FF082600
:1019B0000C9208950F931F93CF93DF93EC0162E194
:1019C00070E00E94E6066FE370E0CE010E94E6063A
:1019D00002E110E041E0B801CE010E94C40C0F5FAB
:1019E0001F4F00341105B1F7249602E110E041E0E9
:1019F000B801CE010E94C40C0F5F1F4F00341105C7
:101A0000B1F7DF91CF911F910F9108952F923F92DF
:101A10004F925F926F927F928F929F92AF92BF92FE
:101A2000CF92DF92EF92FF920F931F93CF93DF93AA
:101A300000D000D01F92CDB7DEB76D30C9F0409016
:101A40000D016090C3027090C402042D10E06A3052
:101A500049F51092C2021092C10283E0000F111FDB
:101A60008A95E1F7600E711E7092C4026092C30203
:101A700081E090E00F900F900F900F900F90DF910A
:101A8000CF911F910F91FF90EF90DF90CF90BF907B
:101A9000AF909F908F907F906F905F904F903F900E
:101AA0002F9008952090C1023090C202E5E06E9F11
:101AB000C001112488509C4F9D838C836101512C5F
:101AC000F5E05F1651F18C819D810196EC81FD81DD
:101AD000F491F9839D838C83430128E02A838981D3
:101AE00081708B8376018E2D8C198415E0F4B12CD6
:101AF000A12CA414A0F490E8E916F10450F4B40168
:101B00006A0D7B1D6034710520F44B81C7010E9472
:101B1000C40CEFEFAE1ABE0AECCF1982DDCFFFEF97
:101B2000EF1AFF0AE0CF2981269529838A81815007
:101B30008A83800E911E8111D2CF5394C00ED11E84
:101B400096E05912BDCFC101459C800D911D112415
:101B50009093C2028093C1028BCF9091C5029823CB
:101B600029F49091C602982381E009F480E0089559
:101B7000CF93C82F0E94B40C982F9C2381E09C1314
:101B800080E0CF91089580E00C94D7068F929F92C9
:101B9000AF92BF92CF92DF92EF92FF920F93CF93CB
:101BA000DF935B01EC014C01840E911C6B01C20EB2
:101BB000D11CC815D905ECF47501B7FE02C0F12C93
:101BC000E12CC60121E4C216D10414F080E490E0B7
:101BD000E816F90664F4C038D10528F4402FB7019F
:101BE000CE010E94C40C8FEFE81AF80AEACF2196C2
:101BF000E0CFDF91CF910F91FF90EF90DF90CF90EA
:101C0000BF90AF909F908F900895089590E080E0EE
:101C10000895FB0101900020E9F73197AF01461BC1
:101C2000570BDC01ED91FC910280F381E02D0994CA
:101C30000F920FB68F939F93EF93FF938091CA02F9
:101C40008D5F8D3708F08D578093CA02EBECF2E080
:101C500080818E4F808391819F4F918382818F4FAE
:101C6000828383818F4F8383EFECF2E080818F5FEB
:101C7000808381818F4F818382818F4F8283838193
:101C80008F4F83838FB18F6066991C9B88278F3617
:101C900081F48091C902981B963068F0E0E0F8E08A
:101CA00087E78083818388E180936000F093600000
:101CB000FFCF9093C902FF91EF919F918F910FBE3B
:101CC0000F9018951F920F920FB60F9211248F93B9
:101CD0009F938091E1009091E100937F9093E100C8
:101CE00083FF0FC01092E90091E09093EB001092F7
:101CF000EC0092E39093ED001092E00298E0909354
:101D0000F00082FF22C093E09093E9009091F200EE
:101D1000992319F09AE39093E8009091690199232F
:101D200041F090916901915090936901911101C026
:101D30005D9A9091DF02992341F09091DF029150DA
:101D40009093DF02911101C0289A84FF18C08091FE
:101D5000E2008E7E81608093E2008091E1008F7EC0
:101D60008093E10080916A018E7E806180936A0198
:101D70009F918F910F900FBE0F901F90189580FF2D
:101D8000F7CF8091E2008E7E80618093E2008091A7
:101D9000E1008E7E8093E10080916A018E7E8160F9
:101DA000E5CF1F920F920FB60F921124CF92DF92C0
:101DB000EF92FF920F931F932F933F934F935F9355
:101DC0006F937F938F939F93AF93BF93EF93FF9303
:101DD000CF93DF93CDB7DEB76C97DEBFCDBF109248
:101DE000E9008091E80083FF25C068E0CE014596B8
:101DF0000E940C0882EF8093E8008D8987FF39C02C
:101E00009091E80090FFFCCF982F907609F034C1B4
:101E10009E894F89588D2F89F88C911131C0803857
:101E200061F580916B018093F1001092F1008EEFCB
:101E30008093E8006C960FB6F894DEBF0FBECDBF5E
:101E4000DF91CF91FF91EF91BF91AF919F918F91D2
:101E50007F916F915F914F913F912F911F910F91C2
:101E6000FF90EF90DF90CF900F900FBE0F901F90DC
:101E700018959EEF9093E800C7CF1092F100D5CF50
:101E8000913059F48111D3CF4130510581F68091C1
:101E90006B018D7F80936B01CACF933049F4811120
:101EA000C6CF4130510519F680916B018260F2CFA7
:101EB000953041F48091E80080FFFCCF20682093AA
:101EC000E300B5CF963009F0A9C00B8D1C8D22E040
:101ED0001092E9001092670110926601F2122EC072
:101EE00010926501109264010E94DB071F8299E045
:101EF0009983FA8291E09E8390EA98879AEF998776
:101F00002091660130916701275F3F4F3C832B830F
:101F10008D831092E9001092670110926601109370
:101F200065010093640149E050E0BE016F5F7F4F9F
:101F300080E00E94B5070E94DB0779CF109365010E
:101F4000009364010E944707DC0112960D911C91D9
:101F50000115110509F451C1D801ED91FC910480DE
:101F6000F581E02DBE016B5E7F4FC801099500979A
:101F700009F03EC1F80100851185EACFF3E0FF12B8
:101F80000EC08F89882309F440C0823061F440E894
:101F900067E08CE19AE00E940311811148CF81E251
:101FA0008093EB0047CF813029F440E86BE080E17B
:101FB0009AE0F1CF833099F70E944707DC0112962F
:101FC000ED90FC908E010F5F1F4F6801E114F1044A
:101FD00079F0D701ED91FC910680F781E02DB801F1
:101FE000C7010995080F111DF701E084F184EECFB8
:101FF000D8011C92F60101900020E9F73197BF014A
:102000006C197D0940E0C601C6CF6AEF79E0FB019B
:10201000449150E080E80E94B50709CF973009F459
:10202000BECF983021F481E08093F10000CF993049
:1020300009F0FDCE837009F0B2CFE3E1F1E081E079
:1020400031E096E32191222371F08093E9003093EF
:10205000EB00DF0111972C912093EC009093ED00A1
:102060008F5F873079F78EE78093EA001092EA005D
:102070008F898093E002DBCE8B8D9C8D1092E900DE
:10208000109267011092660190936501809364013C
:10209000898D811192C08E899D89913A49F481324E
:1020A00009F07DCF47E050E064E071E080E0B3CF1D
:1020B000913209F074CF833269F48F89988DB0E042
:1020C000A0E08093000190930101A0930201B093DE
:1020D0000301ADCE803269F48091E80082FFFCCF2D
:1020E00067E084E091E00E940C088BEF8093E800A9
:1020F0009ECE823209F09BCE8F8980930B01EEEF4A
:10210000FFE7859194918B3F9C4D51F1E0E0F8E021
:102110008091040190910501A0910601B091070101
:10212000803B9440A105B105F1F480910B0180FD45
:102130001AC0EE3F8AE0F80789F587E797E79183B1
:102140008083809160008093680188E19BE00FB6F6
:10215000F894A895809360000FBE9093600067CEBE
:10216000EEEFFAE0D5CF808191818737974709F06C
:102170005ECEA89580916000886180936000809118
:10218000680180936000EE3F2AE0F20789F08091B9
:10219000FE0A9091FF0A9183808349CE80819181CC
:1021A0008737980751F29093FF0A8093FE0AC5CFB4
:1021B0001092FF0A1092FE0A3ACE0E944707DC01F5
:1021C00012960D911C910115110509F4E8CED80164
:1021D000ED91FC910190F081E02DBE016B5E7F4F8F
:1021E000C8010995811123CEF80100851185EBCF37
:1021F000181619060CF41BCED2CEF1E0FF12BECE9B
:102200006EEF79E004CFEF92FF920F931F93CF937D
:10221000DF93F82E192FE62E042F81E0860F880F0A
:102220000E94870783E00E948707CF2DD12FEC0EF5
:10223000FD2EF11CCE15DF05B9F007FF13C0FE011E
:1022400084910E948707182F80E00E9487078123CE
:1022500021968111EFCFDF91CF911F910F91FF90C8
:10226000EF9008958881EDCF81E0F5CFE1EEF2E0C7
:102270001382128288EE93E0A0E0B0E0848395831D
:10228000A683B7838DE191E0918380838FEF9FEFE9
:1022900095878487E5E4F7E0138212828BE391E06F
:1022A00091838083E1E3F7E0138212828FE291E071
:1022B0009183808381E393E09683858380E890E037
:1022C0009087878380E490E09287818785E0838B85
:1022D00081E0828B16861586108A178614861386EF
:1022E000818B14820895CDB7DEB72697DEBFCDBFB0
:1022F000789483E084BD83E085BD81E080936E00A7
:10230000E1E8F0E083E08083E0E881E08083E1E9D8
:1023100083E08083E0E981E08083E1EC87E08083F3
:10232000E3EC81E08083E0EC82E08083E2EC81E01A
:102330008083EAE787E08083806880831092E002F0
:1023400010926B0110926A018091D7008160809396
:10235000D70080EA8093D80089B5806189BD89B5AE
:10236000826089BD09B400FEFDCF81E090E00E944B
:102370005B078091D8008F7C80618093D80080912A
:10238000E000807F8093E0008091E1008E7E80936A
:10239000E1008DE08093E200559A209A81EC8093D1
:1023A0007C0081EF85B987EE84B984E38BB984EF33
:1023B0008AB9769A6E9880EF81BB10BA80E58CBDA1
:1023C00081E08DBD85E00E94B10C5F9A85E00E949E
:1023D000B10C5C98E4EDFAE085918EBD00000DB47F
:1023E00007FEFDCFE13EC1F75C9A81E8809364006F
:1023F00081E0809365000E94C30D80E80E94B80DC3
:10240000882381F085EA0E94BC0C2E982F982D9885
:102410008091640080628093640081E083BF88952E
:1024200013BEFCCF84E00E94B80D8823B9F12D982B
:1024300084E80E94B80D8823A1F02D9A88EC0E94B0
:10244000B10C2F986FEF82E090E00E94861784EF26
:1024500091E00E945B072F9A84E80E94B80D8111D9
:10246000FBCF84E10E94B80D8823A1F02D9A88EC5F
:102470000E94B10C2E9860E082E090E00E948617E6
:1024800084EF91E00E945B072E9A84E10E94B80DD0
:102490008111FBCF88EC0E94B10CC4CF2D9A82E051
:1024A00090E00E947E17882309F498C03E9A3F9AD4
:1024B00081E090E00E947E17282F2470922E81FFE9
:1024C0000CC021112E9801EF1FEF80E40E94B80D7F
:1024D000882309F486C02E9A2F9A82E30E94B10CB9
:1024E0000E94B40C8111F9CF80E180930C010E940D
:1024F000CA061092C4021092C3021092C202109235
:10250000C1026AE270E080E090E00E94751700E787
:1025100011E048EDC42E42E0D42E54E1452E512C5A
:10252000612C712CF12CE12C0E9426175801AE0C65
:10253000BF1CA30192010E949817D5016C93BFEFB5
:10254000EB1AFB0AE9E2EE16F10471F7085D1F4F82
:10255000C016D10639F71092B2021092B102109251
:10256000B00269E370E380E090E00E94751710927A
:10257000B5021092C8021092B4021092B30288E918
:102580009AE39093B7028093B60220E43CE930933B
:10259000B9022093B8021092BB021092BA02909333
:1025A000BD028093BC0282E38093BF0288EC8093DB
:1025B000BE021092C00222242A94322C412C512CAB
:1025C00080916C01882309F4ABC010926C0180E00B
:1025D00090E0892BA9F30E940000F2CF3E983F982B
:1025E00067CF992029F00430110511F42E9A2F9805
:1025F00081E00E94D706302F3770832EC80163E038
:10260000959587956A95E1F7AC015695542F442727
:102610005795479570E060E08E3FAFEF9A0791F1D4
:10262000DA01AF5CBC4F30E020E0FB01EC5DF54F20
:102630007F01FA01EF54FC4F6F01F701E20FF31F26
:10264000E491F0E03F01082C02C0660C771C0A946C
:10265000E2F78F3F980739F05496BC905497B6280C
:102660005496BC925497882039F05601A20EB31E9E
:10267000F50164887628748A2F5F3F4F11962835BC
:102680003105D9F60196685A7F4F40585F4F603B3D
:10269000710509F0C1CF0E94C30D8FE00E94B10CFB
:1026A0000F5F1F4F0931110509F00FCF992011F06D
:1026B0002F9A2D9880E991E00E945B072D9A81E086
:1026C00090E00E947E1780FF08CF8AE090E00E9491
:1026D0007E179FEF980F9E3F08F0FFCE22E330E079
:1026E0003093C2022093C10228E330E03093C40249
:1026F0002093C3020AE010E0682F85E497E00E946F
:10270000060D0F5F1F4FC8010E947E170031110593
:1027100099F70E94C30D88EE93E00E945B07DDCE1F
:102720009091CB0280916D01F92FF81B8F2F209192
:102730000C01F21748F48F5F821708F048CF81E050
:1027400083BF889513BE43CF11E010936C01909323
:102750006D01EEE6F1E080819181019680839183A5
:102760008091C6028093C5020E94B40C8093C60279
:102770000E94CA061092C4021092C3021092C202B2
:102780001092C1028091C8028823A9F0813009F417
:1027900052C080916E0190916F0187709927892BAB
:1027A00039F48091C702833008F400C31092C70245
:1027B0000E94C30D0CCF24E030E03093C20220937E
:1027C000C1023093C4022093C30282E080930D01C2
:1027D00063E471E085E497E00E94090E86E190E0F1
:1027E0009093C2028093C1029093C4028093C3026B
:1027F00069E471E085E497E00E94090EAEE1B0E083
:10280000B093C202A093C102E8E2F0E0F093C402E8
:10281000E093C30210930D0162E571E085E497E057
:102820000E94090E88E00E94AD0D882309F4B1CF03
:102830001093C802AECF8091B202873008F05DC21B
:102840008F5F8093B202912C812CD12CC12CE0900F
:10285000B002F090B102870124E0169507952A9501
:10286000E1F70C191D0917FF02C0085D1F4F20EF8B
:10287000E22AFF24FA94E80CF91C00591E4F9AEF43
:10288000A92EBB24BA94D801EC91E53068F4F0E0AD
:10289000EE0FFF1FEF51F54F459154912091C70264
:1028A000B701C5010E944A0C085D1F4FB0E1AB0E95
:1028B000B11CEAE7AE16B10431F7FFEFCF1ADF0A19
:1028C00020E1820E911C35E0C316D10409F0BFCF80
:1028D00081E080930D0100E025E049E170E060E0D7
:1028E00087E690E00E94C60D8091B3029091B402F9
:1028F0000A9708F417C28AE000E025E0482F66E056
:1029000070E0A0E8B0E0A81BB109CD010E94C60D9F
:10291000E8E6F0E0F0933F07E0933E07F0933D07D1
:10292000E0933C0710924107109240076AE571E07E
:1029300081E397E00E94090E28E630E030933F07DC
:1029400020933E0730933D0720933C0785E090E0BD
:1029500090934107809340078091B4028F938091B8
:10296000B3028F93A0E6B1E0BF93AF9321E030E0D4
:102970002C0F3D1F3F932F930E942918BE016F5FBC
:102980007F4F81EE92E00E94090EBE016F5F7F4F84
:1029900081E397E00E94090E7090C7020F900F909C
:1029A0000F900F900F900F9031E0731209C080913B
:1029B000B3029091B40201969093B4028093B30253
:1029C0008091BE02815009F4AFC18093BE0280E8BD
:1029D0000E94B80DE82EF12C80E10E94B80D811103
:1029E000A5C1F194E194F10880E20E94B80DC82ECF
:1029F000D12C80E40E94B80D002711270C191D0965
:102A0000882321F001E010E00C191D0988E00E94E4
:102A1000AD0D882319F081E08093C0028091C5023A
:102A200083FF05C08091C60283FF1092C00284E03C
:102A30000E94AD0D882309F480C18091B602909167
:102A4000B7028032BEE49B0708F477C180529E44EF
:102A50009093B7028093B60287EA0E94BC0C86E08E
:102A60008093B502E114F10421F087E0011511050E
:102A700009F48AE09091BF02899FC0011124E89E69
:102A8000A001E99E500DF89E500D1124089F900161
:102A9000099F300D189F300D1124A0E08091BC02D9
:102AA0009091BD02BA01680F791F84279527FB0119
:102AB000E427F527809590958E239F2397FDA1E02D
:102AC000A1113FC17093BD026093BC02E0E0809110
:102AD000BA029091BB02B901680F791F8227932730
:102AE000AB0142275327809590958423952397FD2A
:102AF000E1E0E11132C17093BB026093BA02209110
:102B0000BC023091BD02032E000C440B550B305813
:102B10004F4F5F4FA8E3B0E00E94B717A2019101A9
:102B20000E94981769012091BA023091BB02032ECE
:102B3000000C440B550B30584F4F5F4FA4E6B0E0EC
:102B40000E94B717A20191010E9498174901809134
:102B5000C002882309F1272D4DED5CE0B601840108
:102B600001501109C8010E944A0C272D4BE85CE076
:102B7000B601C8010E947C0C272D4DED5CE0B6012A
:102B8000075F1F4FC8010E944A0C272D4BE85CE0ED
:102B9000B601C8010E947C0C0091B8021091B902E4
:102BA000272D093CEFEA1E0708F4E3C049E45CE086
:102BB000B601C4010E944A0C272D4FEF5BE0B6011D
:102BC000C40101970E947C0C7090B502772069F0D7
:102BD000B6016A5F7F4FC401049620E04DEE5AE0D3
:102BE0000E944A0C7A947092B50280E0780128E243
:102BF000E21AF1080E151F0508F481E0F092B902FF
:102C0000E092B80281111092C80220E08091B602D1
:102C10009091B70288539F4F883C910508F421E0BA
:102C20002111C1C09093B7028093B60288E00E9440
:102C3000B80D882379F080E0970122533109E2161C
:102C4000F30608F481E03093B9022093B8028111B1
:102C50001092C80200E02FE34AE06AE070E084E7E7
:102C600090E00E94C60D2091B8023091B902ADE209
:102C7000B0E00E94EC17A20191010E94981769012F
:102C800085E790E00E94DA0C6FE370E06C197D0933
:102C900001E02C2D45E085E790E00E94C60D20E084
:102CA00046E35DE06AE070E085E790E00E944A0C50
:102CB0002091B6023091B702ADE2B0E00E94EC176D
:102CC000A20191010E94981769018BE790E00E9490
:102CD000DA0C6FE370E06C197D092C2D45E08BE771
:102CE00090E00E94C60D20E04FE25DE06AE070E0F7
:102CF0008BE790E00E944A0C4CCD8091B0029091FD
:102D0000B1021092B2028038F2E09F0730F40196CF
:102D10009093B1028093B00296CD1092B1021092BE
:102D2000B00291CD85E0E8CD8FEF4FCE81E090E00D
:102D3000DC01AE19BF097D0157CE86EA0E94BC0CAA
:102D400091CE8FEF9FE71416150614F080E090E8FF
:102D50009093BD028093BC02B9CE8FEF9FE712160D
:102D6000130614F080E090E89093BB028093BA02BF
:102D7000C6CE093AF1E61F0760F04DEB5BE0B60105
:102D8000C4010E944A0C272D4BE75BE0B601C40149
:102D900019CF49E35BE0B601C4010E944A0C272D1C
:102DA00047EF5AE0F3CF8FEF9FEF3CCF8F5F8093D9
:102DB000C702FECC8F929F92AF92BF92CF92DF92CA
:102DC000EF92FF92CF93DF93EC01688179818A8142
:102DD0009B81611571058105910521F464E279ED0E
:102DE0008BE597E02DE133EF41E050E00E9498172A
:102DF00049015A019B01AC01A7EAB1E40E94B7174F
:102E00006B017C01ACEEB4EFA50194010E94C517E3
:102E1000C60ED71EE81EF91EF7FE06C081E0C81ACE
:102E2000D108E10880E8F80AC882D982EA82FB82E8
:102E3000C701B6019F77DF91CF91FF90EF90DF90B0
:102E4000CF90BF90AF909F908F9008958F929F9258
:102E5000AF92BF92CF92DF92EF92FF9260910E01FC
:102E600070910F0180911001909111016115710510
:102E70008105910521F464E279ED8BE597E02DE180
:102E800033EF41E050E00E94981749015A019B013D
:102E9000AC01A7EAB1E40E94B7176B017C01ACEE6C
:102EA000B4EFA50194010E94C517C60ED71EE81EF7
:102EB000F91EF7FE06C081E0C81AD108E10880E8D3
:102EC000F80AC0920E01D0920F01E0921001F09228
:102ED0001101C701B6019F77FF90EF90DF90CF906F
:102EE000BF90AF909F908F90089560930E01709364
:102EF0000F0180931001909311010895F999FECF6D
:102F000092BD81BDF89A992780B50895262FF99929
:102F1000FECF92BD81BDF89A019700B4021639F038
:102F20001FBA20BD0FB6F894FA9AF99A0FBE089509
:102F3000052E97FB1EF400940E94AF1757FD07D093
:102F40000E94CA1707FC03D04EF40C94AF1750959B
:102F50004095309521953F4F4F4F5F4F0895909585
:102F60008095709561957F4F8F4F9F4F08950E9478
:102F7000EC17A59F900DB49F900DA49F800D911DFF
:102F800011240895B7FF0C94B7170E94B717821B3E
:102F9000930B0895A1E21A2EAA1BBB1BFD010DC0C5
:102FA000AA1FBB1FEE1FFF1FA217B307E407F507F9
:102FB00020F0A21BB30BE40BF50B661F771F881FD5
:102FC000991F1A9469F760957095809590959B016B
:102FD000AC01BD01CF010895A29FB001B39FC00114
:102FE000A39F700D811D1124911DB29F700D811D35
:102FF0001124911D089597FB072E16F4009407D015
:1030000077FD09D00E940F1807FC05D03EF490957B
:1030100081959F4F0895709561957F4F0895AA1BE4
:10302000BB1B51E107C0AA1FBB1FA617B70710F0B3
:10303000A61BB70B881F991F5A95A9F780959095E5
:10304000BC01CD010895EE0FFF1F0590F491E02D16
:103050000994AEE0B0E0EFE2F8E10C94D81A0D89E3
:103060001E8986E08C831A8309838FEF9FE79E83F6
:103070008D83AE01475E5F4F6F89788DCE010196DB
:103080000E944C182F813885020F131FF8011082FF
:103090002E96E4E00C94F41AABE0B0E0E2E5F8E13F
:1030A0000C94CA1A7C013B018A01FC01178216822A
:1030B000838181FFC8C1CE0101965C01F701938134
:1030C000F30193FD859193FF81913F01882309F4DA
:1030D00053C1853239F493FD859193FF81913F016E
:1030E000853229F4B70190E00E943C1AE7CF912C79
:1030F000212C312CFFE1F31538F08B3211F190F4D3
:10310000803209F1833229F137FC3CC020ED280FD1
:103110002A3050F536FE20C08AE0989E200D1124FA
:10312000922E06C08D3291F0803371F7689430F89A
:10313000F30193FD859193FF81913F018111DACFD6
:1031400021C0689431F8689432F8F2CF689433F86B
:10315000EFCF689434F8ECCFEAE02E9E200D1124D6
:10316000222E689435F8E4CF8E3229F436FC04C15F
:10317000689436F8DDCF8C3619F4689437F8D8CFD8
:103180008836B1F2982F9F7D95549330E0F08336C6
:10319000A1F18337C1F1833509F063C02801F2E062
:1031A0004F0E511CF801C080D180692D70E036FCB3
:1031B00002C06FEF7FEFC6010E94261A4C0168948F
:1031C00037F882010AC00C5F1F4FFFE3F9838824A0
:1031D0008394912C6501E89437F833FE2DC0522C6E
:1031E0008114910471F5552009F468CFB70180E28C
:1031F00090E00E943C1A5A94F6CFF80180818983AE
:103200000E5F1F4FE4CF2801F2E04F0E511CF80172
:10321000C080D180692D70E036FC02C06FEF7FEF77
:10322000C6010E94311A4C018201D5CFB70180E25C
:1032300090E00E943C1A2A942814190409F0B0F76F
:10324000CECFF60137FC859137FE81916F01B70132
:1032500090E00E943C1A51105A94F1E08F1A9108A4
:10326000BFCF843619F0893609F077C0F80137FEF0
:103270006BC060817181828193810C5F1F4FF32D40
:10328000FF763F2E97FF09C09095809570956195C8
:103290007F4F8F4F9F4F689437F82AE030E0A501A9
:1032A0000E946C1AC82ECA188C2C432C36FE0CC0F7
:1032B000E89440F8C91440F434FE05C032FC03C061
:1032C000F32DFE7E4F2E892C44FE95C0FE01EC0DA1
:1032D000F11D8081803309F087C0242D297E422E84
:1032E000842D8870582E43FC95C040FE8FC09C2CC6
:1032F000821418F42C0C922C981844FE91C0B7013B
:1033000080E390E00E943C1A42FE09C088E790E00A
:1033100041FE02C088E590E0B7010E943C1AC91442
:1033200008F48AC0CA94D12C9FEFC91AD90ACA0CD2
:10333000DB1CF60182916F01B70190E00E943C1AFC
:10334000AC14BD04B1F74FCF60817181072E000C22
:10335000880B990B0E5F1F4F92CFD32CE894D4F8B3
:103360002AE030E0853739F1232D297FD22E8F36A0
:1033700001F148F48835A9F0F701868197812B96F1
:10338000E2E10C94E61A803749F08837A9F7D4FEB9
:1033900002C06894D2F820E130E00DC06894D4F8FF
:1033A000F6CF34FE03C0822F8660D82E20E132E0B3
:1033B00002C028E030E0F801D7FE0FC060817181C3
:1033C000828193810C5F1F4FA5010E946C1AC82E49
:1033D000CA183D2CE89437F867CF6081718190E07E
:1033E00080E00E5F1F4FF0CF42FC02C0839478CF85
:1033F0008394839475CF842D867809F471CFF6CFAA
:10340000B70180E290E00E943C1A83948214C0F3DA
:10341000512C73CF522C5818821408F46ECFF8CF69
:10342000842D867809F47BCF8BE241FE80E247FC55
:103430008DE2B70190E071CFB70180E390E00E9488
:103440003C1A9A946CCF8FEF9FEF99CFFC010590B7
:10345000615070400110D8F7809590958E0F9F1F96
:103460000895FC016150704001900110D8F78095DB
:1034700090958E0F9F1F08950F931F93CF93DF9307
:10348000182F092FEB018B8181FD09C01FEF0FEF72
:10349000812F902FDF91CF911F910F91089582FF7F
:1034A00014C02E813F818C819D81281739073CF4FF
:1034B000E881F981CF0101969983888310838E81F9
:1034C0009F8101969F838E83E3CFE885F985812FC5
:1034D0000995892BA1F3DACFFA01AA27283051F1F7
:1034E000203181F1E8946F936E7F6E5F7F4F8F4F35
:1034F0009F4FAF4FB1E03ED0B4E03CD0670F781F94
:10350000891F9A1FA11D680F791F8A1F911DA11D78
:103510006A0F711D811D911DA11D20D009F46894B1
:103520003F912AE0269F11243019305D3193DEF659
:10353000CF010895462F4770405D4193B3E00FD00F
:10354000C9F7F6CF462F4F70405D4A3318F0495DFA
:1035500031FD4052419302D0A9F7EACFB4E0A695DD
:103560009795879577956795BA95C9F700976105FF
:10357000710508959B01AC010A2E06945795479555
:1035800037952795BA95C9F7620F731F841F951F4A
:10359000A01D08952F923F924F925F926F927F925B
:1035A0008F929F92AF92BF92CF92DF92EF92FF9253
:1035B0000F931F93CF93DF93CDB7DEB7CA1BDB0BFF
:1035C0000FB6F894DEBF0FBECDBF09942A883988A4
:1035D00048885F846E847D848C849B84AA84B984AB
:1035E000C884DF80EE80FD800C811B81AA81B981B7
:1035F000CE0FD11D0FB6F894DEBF0FBECDBFED01CB
:063600000895F894FFCFCD
:10360600FFFFFFFF00E100000000000010010100C5
:10361600000000C1808100000000000000C90846CB
:1036260008EA08DF083009EE080C0900000000B8B7
:10363600091908060E050E00000000060D190806F9
:103646000E050E53746F726D006F70657261746F44
:103656007200737461727420410053434F524500E7
:0436660025356400A2
:00000001FF
