:100000000C94A0060C94C8060C94C8060C94C80660
:100010000C94C8060C94C8060C94C8060C94C80628
:100020000C94C8060C94C8060C94650E0C94D40E5F
:100030000C94C8060C94C8060C94C8060C94C80608
:100040000C94C8060C94C8060C94C8060C94C806F8
:100050000C94C8060C94C8060C94C8060C941B0E8D
:100060000C94C8060C94C8060C94C8060C94C806D8
:100070000C94C8060C94C8060C94C8060C94C806C8
:100080000C94C8060C94C8060C94C8060C94C806B8
:100090000C94C8060C94C8060C94C8060C94C806A8
:1000A0000C94C8060C94C8060C94C80610100000E6
:1000B000408870004498E07A4442382050000000A4
:1000C00000000304048FFFF484020000000000001D
:1000D00010E000044890E27C4240382050000000CC
:1000E00001020204048FFFF48201000000000000FE
:1000F000408870004498E07A444238205000000064
:1001000000000304048FFFF48402000000000000DC
:1001100010E000044890E27C42403820500000008B
:1001200001020204048FFFF482010000000010109D
:1001300000000000808040404040404080000000BF
:1001400000384641404040402040202040434C3051
:10015000000000008080404040404040800000009F
:1001600000384641404040402040202040434C3031
:10017000000000008080404040404040800000007F
:1001800000384641404040402040202040434C3011
:10019000000000008080404040404040800000005F
:1001A00000384641404040402040202040434C30F1
:1001B000000040A0A09090600000001824241800C7
:1001C0000038444444444830000000205048300087
:1001D00000081414080000000000000000040A04D5
:1001E0000038444444444830000000002050483067
:1001F000101000609804C2891971E181C1613284D4
:1002000078000000010204090B8EFFFF8404020144
:1002100000000000609804C28919F1E181C16132D7
:1002200004F8000000010204098BFFFF890808049C
:1002300003000000609804C28919F1E181C16132B4
:1002400004F8000000010204098BFFFF890808047C
:10025000030000609804C2891971E181C161328490
:1002600078000000010204090B8EFFFF84040201E4
:1002700000001010000814080000048A04000008A0
:100280009408000042A542000020512201000021F4
:1002900052210000000814080000048A040000082D
:1002A0009408000042A542000020512201000021D4
:1002B00052210000000814080000048A040000080D
:1002C0009408000042A542000020512201000021B4
:1002D00052210000000814080000048A04000008ED
:1002E0009408000042A54200002051220100002194
:1002F00052210000101080C040C0800267FDC7027C
:100300001038E838100000197F31000000010000AB
:1003100000060F03000080C040C0800267FDC702D6
:100320001038E838100000197F310000000100008B
:1003300000060F0300000080C040C08062F7CD07B8
:100340000210B868381000187D3301000001000069
:1003500000060F0300000080C040C08062F7CD0798
:100360000210B868381000187D3301000001000049
:1003700000060F0300001010C020A02040800000E5
:10038000E01C020915110E000102020100010E001D
:10039000030078060101060000C020A02040800074
:1003A00000E01C020915110E0001020201000F00FD
:1003B0000300700C020109060000C020A020C0004C
:1003C00000E01C020915110E0000000100000F00E2
:1003D0000300700C0201090600C020A0204080002C
:1003E00000E01C020915110E0001020201000F00BD
:1003F0000300700C0201090600000000003E5B4F84
:100400005B3E3E6B4F6B3E1C3E7C3E1C183C7E3C74
:10041000181C577D571C1C5E7F5E1C00183C180082
:10042000FFE7C3E7FF0018241800FFE7DBE7FF3012
:10043000483A060E2629792926407F050507407F80
:1004400005253F5A3CE73C5A7F3E1C1C08081C1CF3
:100450003E7F14227F22145F5F005F5F06097F01E9
:100460007F006689956A606060606094A2FFA294D4
:1004700008047E040810207E201008082A1C0808A2
:100480001C2A08081E101010100C1E0C1E0C3038F0
:100490003E3830060E3E0E06000000000000005FF1
:1004A00000000007000700147F147F14242A7F2A0D
:1004B00012231308646236495620500008070300CF
:1004C000001C2241000041221C002A1C7F1C2A081B
:1004D000083E08080080703000080808080800007E
:1004E00060600020100804023E5149453E00427FF2
:1004F000400072494949462141494D331814127F41
:100500001027454545393C4A4949314121110907E0
:100510003649494936464949291E00001400000061
:100520004034000000081422411414141414004133
:1005300022140802015909063E415D594E7C1211F0
:10054000127C7F494949363E414141227F41414128
:100550003E7F494949417F090909013E41415173A3
:100560007F0808087F00417F41002040413F017F14
:10057000081422417F404040407F021C027F7F04DC
:1005800008107F3E4141413E7F090909063E415125
:10059000215E7F09192946264949493203017F0115
:1005A000033F4040403F1F2040201F3F4038403F16
:1005B000631408146303047804036159494D43002C
:1005C0007F4141410204081020004141417F040263
:1005D00001020440404040400003070800205454FA
:1005E00078407F28444438384444442838444428D8
:1005F0007F385454541800087E090218A4A49C782B
:100600007F0804047800447D40002040403D007F86
:100610001028440000417F40007C047804787C0866
:100620000404783844444438FC182424181824243A
:1006300018FC7C08040408485454542404043F441F
:10064000243C4040207C1C2040201C3C4030403C4E
:1006500044281028444C9090907C4464544C4400AE
:100660000836410000007700000041360800020112
:100670000204023C2623263C1EA1A161123A4040FE
:10068000207A38545455592155557941215454787C
:1006900041215554784020545579400C1E52721215
:1006A000395555555939545454593955545458009D
:1006B00000457C410002457D420001457C40F02917
:1006C0002429F0F0282528F07C5455450020545466
:1006D0007C547C0A097F49324949493232484848AA
:1006E00032324A4848303A4141217A3A42402078F1
:1006F000009DA0A07D39444444393D4040403D3CEC
:1007000024FF2424487E4943662B2FFC2F2BFF090E
:1007100029F620C0887E0903205454794100004402
:100720007D413048484A32384040227A007A0A0AED
:10073000727D0D19317D2629292F28262929292660
:1007400030484D4020380808080808080808382FA5
:1007500010C8ACBA2F102834FA00007B000008142F
:100760002A142222142A14089500220095AA005562
:1007700000AAAA55AA55AA000000FF00101010FFF9
:1007800000141414FF001010FF00FF1010F010F000
:10079000141414FC001414F700FF0000FF00FF14F1
:1007A00014F404FC141417101F10101F101F14143D
:1007B000141F00101010F0000000001F1010101087
:1007C0001F10101010F010000000FF10101010107B
:1007D00010101010FF10000000FF140000FF00FFB9
:1007E00000001F10170000FC04F414141710171455
:1007F00014F404F40000FF00F71414141414141477
:10080000F700F7141414171410101F101F141414E9
:10081000F4141010F010F000001F101F0000001F53
:1008200014000000FC140000F010F01010FF10FF86
:10083000141414FF141010101F00000000F010FF1B
:10084000FFFFFFFFF0F0F0F0F0FFFFFF00000000FF
:1008500000FFFF0F0F0F0F0F38444438447C2A2A43
:100860003E147E02020606027E027E026355494164
:10087000633844443C04407E201E2006027E02026F
:1008800099A5E7A5991C2A492A1C4C7201724C3083
:100890004A4D4D303048784830BC625A463D3E495A
:1008A0004949007E0101017E2A2A2A2A2A44445FFE
:1008B000444440514A444040444A51400000FF01F2
:1008C00003E080FF000008086B6B08361236243600
:1008D000060F090F06000018180000001010003065
:1008E00040FF0101001F01011E00191D1712003CED
:1008F0003C3C3C000000000000B00000A170E15052
:10090000964F26900F1D070C009669004AE44A0096
:1009100048444000806810000F99FB8F9DBDBBFBD1
:1009200077D4D4DF1F1A1AFE7F5D5DFF805A000066
:10093000A0A4AA0010BA3400FF5953F3FF9B9B9E5A
:10094000FFB9B996FF9595D19FF4940FFC295F915B
:10095000FF1838F8FF9294FFFF95D5F7BFB5DDD7A4
:10096000F18F81F1F788C8F779C6467909FD9B09AF
:100970000196F8008281828050716200775656009D
:1009800076763700A2B77301077206007827500009
:1009900073347400775176007F55F700477110006B
:1009A000324772007364730015A27500616794008A
:1009B000009F6060F4F2F6F2080B000202020000F1
:1009C00009040000010202000005240010010524B2
:1009D0000101010424020605240600010705810324
:1009E00010004009040100020A000000070502028D
:1009F00040000007058302400000040309041201BF
:100A00000002EF0201404123368000010102030190
:100A100041726475696E6F204C4C4300417264757D
:100A2000626F7900F0F89C8E8783878E9CF8F000C7
:100A300000FEFF0303030303070EFCF80000FEFFA4
:100A40000303030303070EFCF80000FFFF00000090
:100A500000000000FFFF0000FEFF8383838383C745
:100A6000EE7C380000F8FC0E07030303070EFCF8C9
:100A700000003F7FE0C08080C0E07F3FFFFF0101BA
:100A80000101010101FFFF0000FFFF0C0C0C0C1C19
:100A90003E77E3C100007FFFC0C0C0C0C0E0703F30
:100AA0001F00001F3F70E0C0C0C0E0703F1F00008B
:100AB0007FFFC1C1C1C1C1E3773E1C00001F3F7071
:100AC000E0C0C0C0E0703F1F000000000001FFFF59
:100AD00001000000D5F08D14A1C881CFD9F1AF205D
:100AE000007603F4027202F0012E01AC0008081037
:100AF000181CDE73311000100800182442424444D0
:100B00004422222242422418000018244242422257
:100B10002424444242422418000018244222222263
:100B200042424444444224180000182424224242F1
:100B300042424242442424180010080000183C3C61
:100B40003838381C1C1C3C3C1800000000183C3C89
:100B50003C1C1818383C3C3C1800000000183C1C99
:100B60001C1C3C3C3838383C180000000018181C8D
:100B70003C3C3C3C3C3C381818000010081824420F
:100B8000828282828141414181814224181824421B
:100B9000818141414242428181814224181824428C
:100BA000414141414182828282824224181824427A
:100BB0004241818181818181824242241810080052
:100BC000183C7C7C7C7C7E3E3E3E7E7E3C18000059
:100BD000183C7E7E3E3E3C3C3C7E7E7E3C180000C7
:100BE000183C3E3E3E3E3E7C7C7C7C7C3C180000BB
:100BF000183C3C3E7E7E7E7E7E7E7C3C3C18001215
:100C0000083C42818181814222224141818282814C
:100C100081423C3844424221214141818182828289
:100C2000818182423C1C224141414181818141417B
:100C3000418182828244383844828241414141412B
:100C400041418182828282443810083C7E7E7E7ED1
:100C50003C1C1C3E3E7E7C7C7E7E3C383C3C1E1E0A
:100C60003E3E7E7E7C7C7C7E7E7C3C1C3E3E3E3ED0
:100C70007E7E7E3E3E3E7E7C7C7C38387C7C3E3E6A
:100C80003E3E3E3E3E7E7C7C7C7C380A108040802E
:100C90000000000000000041A2411C221C7088706E
:100CA0000000800000000080408000070807708876
:100CB0007041A24100000000804080008000001CC4
:100CC000221C41A24107080700000000008000002C
:100CD0000000007088700708071C221C000A100022
:100CE000800000000000000000004100001C000027
:100CF00070000000000000000000800000000700FD
:100D000000700000410000000000008000000000B2
:100D100000001C000041000007000000000000006F
:100D20000000000000007000000700001C0000052B
:100D3000080C6F3F1B090508307C5F4C30003911EF
:100D400011241FBECFEFDAE0DEBFCDBF11E0A0E07F
:100D5000B1E0E4EBF7E302C005900D92A436B107D1
:100D6000D9F726E0A4E6B1E001C01D92A93FB20781
:100D7000E1F716E0C0EAD6E004C02197FE010E9428
:100D8000FA18CF39D107C9F70E9476110C94D81BF5
:100D90000C940000480F592F511D1416150684F5A8
:100DA000803891056CF597FF02C090E080E04138F3
:100DB000510514F040E850E0481BFB01E770FF27A5
:100DC00021E001C0220FEA95EAF777FF02C0695FD0
:100DD0007F4FFB0133E0F595E7953A95E1F7F695FE
:100DE000FE2FEE27F795E795E80FF91FEF51FD4F1E
:100DF000415030F08191DF011197822B8C93F8CF15
:100E0000089590E0E1EEF2E091119FEF8FEF919362
:100E10009193919391938150D0F70895E1EEF2E090
:100E2000A0E0B8E000800EBC8111012C1197A0FD5C
:100E3000FDCF0192B9F70DB40895FC0180919002A5
:100E4000882311F13FB7F89482E08093E900209164
:100E5000F200822F90E01816190614F481E090E059
:100E6000882339F0289844E640938F024091F1009E
:100E70004083222339F02091F200211103C02BE698
:100E80002093E8003FBF08958FEF9FEF08952FB79D
:100E9000F89483E08093E9009091E800892F8072B4
:100EA00095FF04C09091F20080E4891B2FBF089544
:100EB0008091870281110DC082E08093830284E0DB
:100EC00080938402109286021092850281E08093C2
:100ED000870283E892E00895FC010E948007319721
:100EE00028F068517C4F8F4F9F4FF9CFAB01FC0129
:100EF0000E948007641775078E079F07C8F308953F
:100F0000AFE7B2E02FB7F8947D918D919C9166B5D3
:100F10002FBFA89B05C06F3F18F47F5F8F4F9F4F77
:100F200022E0660F771F881F991F2A95D1F7089531
:100F300040916601509167012091640130916501F3
:100F400042175307B4F49091E8009570E1F3909143
:100F5000E80092FD19C08093F100809166019091A4
:100F6000670101968F739927892B19F48EEF80936F
:100F7000E800809166019091670101969093670166
:100F80008093660181E0089580E00895DF92EF92FA
:100F9000FF920F931F93CF93DF93D82E8A01EB011B
:100FA0007B01E40EF51ECE15DF0559F0D7FE12C009
:100FB000FE0184910E94980721968111F4CF0FEFD2
:100FC0001FEFC801DF91CF911F910F91FF90EF901C
:100FD000DF9008958881EECF0F931F93CF93DF9317
:100FE0001F92CDB7DEB782E0898342E450E068EB20
:100FF00079E080E80E94C6070E945807DC0112963B
:101000000D911C910115110589F0D801ED91FC910C
:101010000280F381E02DBE016F5F7F4FC80109950B
:1010200097FD04C0F80100851185ECCF89810F90F0
:10103000DF91CF911F910F910895615030F0209171
:10104000F100FC0120830196F8CF289884E6809374
:101050008F020895AF92BF92CF92DF92EF92FF92EC
:101060000F931F93CF93DF936C017B018B01040FD0
:10107000151FEB015E01AE18BF08C017D10759F06C
:101080006991D601ED91FC910190F081E02DC601AE
:101090000995892B79F7C501DF91CF911F910F91A8
:1010A000FF90EF90DF90CF90BF90AF9008958F9218
:1010B0009F92AF92BF92CF92DF92EF92FF920F93E7
:1010C0001F93CF93DF936C017B018A0180910B0109
:1010D000882309F45AC080919002882309F455C0EE
:1010E00080916A0180FF05C08091E000826080935A
:1010F000E000E801B12C8AEFA82E93E0892E2AE3C4
:10110000922E209711F4BB20C9F10E94470781114C
:1011100008C0AA94AA20C9F181E090E00E946C075F
:10112000F0CF8C171D0611F00CF08C2F9FB7F894A0
:101130008092E9002091E80025FD02C09FBFE1CF29
:10114000282F30E0C21BD30BF701815020F04191D2
:101150004093F100FACFE20EF31EBB2021F09092F3
:10116000E800B12CEBCF8091E80085FDE7CF9092AD
:10117000E800BB24B394209709F3F3CF5D9884E68D
:1011800080936901101611063CF081E090E0F601B1
:101190009383828310E000E0C801DF91CF911F911B
:1011A0000F91FF90EF90DF90CF90BF90AF909F9006
:1011B0008F900895CF93DF931F92CDB7DEB76983E9
:1011C000DC01ED91FC910280F381E02D41E050E0E3
:1011D000BE016F5F7F4F09950F90DF91CF9108950A
:1011E00083E08093E9008091F200882319F08AE37C
:1011F0008093E80008950E94470790E00895CF93F8
:10120000DF931F92CDB7DEB7FC018485958597FDEE
:1012100008C02FEF3FEF358724870F90DF91CF91E4
:101220000895CE0101960E941D07019719F4898146
:1012300090E0F3CF8FEF9FEFF0CF0F931F93CF93FB
:10124000DF931F92CDB7DEB78C01FC0184859585B5
:1012500097FF0BC0CE0101960E941D07019771F404
:10126000898190E0F80195878487F80184859585C8
:101270000F90DF91CF911F910F9108958FEF9FEF06
:10128000F1CFFC018485958597FD0BC09FB7F8943D
:1012900082E08093E9008091F2009FBF90E0019688
:1012A00008959FB7F89482E08093E9008091F2005E
:1012B0009FBF90E008956F927F928F929F92AF921E
:1012C000BF92CF92DF92EF92FF920F931F93CF9333
:1012D000DF934C017B01C22F102F98E0A92EB12C77
:1012E000642E669466946694712CCA01877099275F
:1012F000892B79F5D40117962D913C91C701992737
:10130000B9010E94D218269DF001279DF00D369D4F
:10131000F00D11248E0F9F1FD4011596ED91FC91B5
:10132000E80FF91F2081111112C0C095C223C0839C
:10133000DF91CF911F910F91FF90EF90DF90CF90B1
:10134000BF90AF909F908F907F906F900895C22B29
:10135000EECFD0E04770C42ED12C83E0660C771C12
:101360008A95E1F79E0101C0220F4A95EAF7012F05
:10137000A301B701C4010E945B09A301485F5F4F4D
:10138000C5018C199D0902C0D595C7958A95E2F7CC
:10139000A7CF5F926F927F928F929F92AF92BF92F0
:1013A000CF92DF92EF92FF920F931F93CF93DF9331
:1013B000EC016A30F1F48D859E859C878B878B8943
:1013C0002F853889820F932F911D988B8F8781E00D
:1013D00090E0DF91CF911F910F91FF90EF90DF9000
:1013E000CF90BF90AF909F908F907F906F905F90C5
:1013F0000895AB84BC84693031F429E0A20EB11C9D
:10140000BC86AB86E4CF3DEFA3163FEFB3060CF4EA
:101410005BC08F819885A816B9060CF055C0CF84A3
:10142000D8888DEFC8168FEFD8060CF44DC089858B
:101430009A85C816D9060CF047C060320CF46FE7E5
:1014400080EE860F9FE9960F9A3118F49FEFC91A24
:10145000D90A8C3011F08B3119F42FEFC21AD20A4D
:10146000869534E0839FC00111249C012850374F9A
:101470007901912C812C162F1170F701E80DF91DBF
:10148000549011112BC0352D3F70532E3501680C2F
:10149000791C8C81882351F001E08989811100E059
:1014A0002FE0A601B301CE010E945B090989252D19
:1014B000A601B301CE010E945B098FEF881A980A3A
:1014C00094E089169104C9F68A8990E004962B85E8
:1014D0003C85820F931F9C878B8779CF52948FE036
:1014E0005822D4CF4F925F926F927F928F929F92A9
:1014F000AF92BF92CF92DF92EF92FF920F931F9322
:10150000CF93DF934C015901FC2DC02FD0E0CE01C9
:10151000880D991D181619060CF06CC020E882166B
:1015200091040CF067C09B012E0D311D121613069D
:101530000CF060C0603471050CF05CC041155105C1
:1015400009F458C0E62FE770FE2EDB0177FD1796F1
:1015500033E0B595A7953A95E1F73A2F77FF04C0A8
:10156000FF2011F03FEF3A0F6627772768197909B6
:1015700097FC02C070E060E0803891050CF44BC02D
:1015800090E89819961BA32F032E000CBB0B1A2F63
:1015900010953F3F0CF010E021E08E2D877009F48C
:1015A00020E0E694E694E694E20EAE0DB11D1997A4
:1015B0001CF028E0E22EE31AE11A310F20E8320392
:1015C000D0011124A80DB91DA60FB71F019F600DF2
:1015D000711D1124460F571F0F2D0F2C000C110BDE
:1015E000F33009F41CC1C8F4F13009F4D0C0F23072
:1015F00009F47CC0DF91CF911F910F91FF90EF9084
:10160000DF90CF90BF90AF909F908F907F906F9022
:101610005F904F900895902FB5CFFA3FB1F1232FEF
:101620002E0DFB3F39F7321729F3BD016F517D4F66
:10163000D12CC12CC91608F0A4C0FA01EC0DFD1D77
:10164000E491F0E04F01002E02C0880C991C0A942E
:10165000E2F737FD06C0FB018081E82CE0948E2183
:101660008083FF2061F0373054F45B01F0E8AF0E67
:10167000B11CE92CE094F50180818E218083FFEF7D
:10168000CF1ADF0A6F5F7F4FD5CF232F2E0D321772
:1016900009F4B0CFBD016F517D4FD12CC12CC916BB
:1016A00008F069C0FA01EC0DFD1DE491F0E04F0176
:1016B000002E02C0880C991C0A94E2F737FD04C082
:1016C000FB01808188298083FF2051F0373044F46A
:1016D0005B01F0E8AF0EB11CF501808189298083A0
:1016E000FFEFCF1ADF0A6F5F7F4FD9CF6FEF70E048
:1016F0000F2C02C0660F771F0A94E2F76095709571
:10170000772E232F2E0D321709F474CFFD01EF51E0
:10171000FD4F6F01B12CA12CA91638F5FA01EA0D85
:10172000FB1DE491F0E02F01002E02C0440C551C7B
:101730000A94E2F737FD05C0F601808186238429EB
:101740008083FF2059F037304CF44601F0E88F0ECB
:10175000911CF4018081872185298083FFEFAF1AD6
:10176000BF0A8FEFC81AD80AD7CF3F5F4C0F5D1F53
:10177000A058BF4FC8CF3F5F4C0F5D1FA058BF4F51
:1017800086CF3F5F4C0F5D1FA058BF4F4CCF6A0DF7
:101790007B1D232F2E0D321709F42CCFFD01EF51A5
:1017A000FD4F6F01B12CA12CA91688F5FB01EA0DA4
:1017B000FB1D8490912C002E02C0880C991C0A9469
:1017C000E2F780949094FA01EA0DFB1D6490712C6D
:1017D000002E02C0660C771C0A94E2F737FD05C0A4
:1017E000F6018081882186298083FF2049F03730E7
:1017F0003CF4F601E058FF4F8081892187298083DE
:10180000FFEFAF1ABF0A8FEFC81AD80ACDCF3F5FDC
:101810004C0F5D1F6C0F7D1FA058BF4FBCCFC92E52
:10182000D12CFA01E60FF71FAF51BD4F00E810E0D1
:101830000C191D09CC19DD09BE01660F771F41E0A7
:1018400050E06A010F2C01C0CC0C0A94EAF7592F22
:101850002E2D792ECF93DF93ED01EF96EF96229602
:101860008590A590FF2059F08C9C4001AC9C5001C4
:1018700037302CF4E880B094EB20E928E992332348
:101880003AF0EC90A094EA20E828ED920C94490CF0
:1018900011965A9529F72A9551F0572D3395112411
:1018A000E60FF11DA00FB11DC00FD11DD9CFDF91E3
:1018B000CF9111249FCECF92EF920F9341155105F6
:1018C00041F1FA0104913196E4904E5F5F4F22237B
:1018D000D1F0A1E0B0E03E2D377011F4B0E0A0E00F
:1018E000EE2DE695E695E695EA0FFB2FF11D0E9F8E
:1018F000D0010F9FB00D11242A9FF0012B9FF00DF6
:1019000011244E0F5F1F2AEFC22E30E020E00E940C
:10191000720A0F91EF90CF900895CF92EF920F93AC
:10192000CF93DF93DC01FA0104913196E4904E5F8E
:101930005F4F2223D1F0C1E0D0E09E2D977011F4CB
:10194000D0E0C0E0EE2DE695E695E695EC0FFD2F94
:10195000F11D0E9FE0010F9FD00D11242C9FC0019F
:101960002D9F900D1124480F591F8BEFC82E30E08A
:1019700020E0CD010E94720ADF91CF910F91EF908C
:10198000CF90089590E00C946C078FB18095807F84
:10199000669B88601C9B846008955C988EBD0000E7
:1019A0000DB407FEFDCF5C9A089590E1282F81E0E9
:1019B00061FD84E060FD880F62FD8295687F969FDF
:1019C000D0011124A20FAF51BD4F0C90082A40FF47
:1019D00008260C9208952F923F924F925F926F9239
:1019E0007F928F929F92AF92BF92CF92DF92EF92AF
:1019F000FF920F931F93CF93DF9300D000D01F92DD
:101A0000CDB7DEB76D30C9F040900D016090730224
:101A100070907402042D10E06A3049F51092720241
:101A20001092710283E0000F111F8A95E1F7600E9A
:101A3000711E709274026092730281E090E00F90C8
:101A40000F900F900F900F90DF91CF911F910F91FA
:101A5000FF90EF90DF90CF90BF90AF909F908F90CE
:101A60007F906F905F904F903F902F9008952090BF
:101A7000710230907202E5E06E9FC001112488501F
:101A80009C4F9D838C836101512CF5E05F1651F1D1
:101A90008C819D810196EC81FD81F491F9839D8378
:101AA0008C83430128E02A83898181708B837601AE
:101AB0008E2D8C198415E0F4B12CA12CA414A0F463
:101AC00090E8E916F10450F4B4016A0D7B1D60340E
:101AD000710520F44B81C7010E94D50CEFEFAE1ABF
:101AE000BE0AECCF1982DDCFFFEFEF1AFF0AE0CF7D
:101AF0002981269529838A8181508A83800E911EAF
:101B00008111D2CF5394C00ED11E96E05912BDCF91
:101B1000C101459C800D911D112490937202809308
:101B200071028BCF90917502982329F490917602DF
:101B3000982381E009F480E00895CF93C82F0E9494
:101B4000C50C982F9C2381E09C1380E0CF910895D1
:101B500080E00C940E07DF92EF92FF920F931F9399
:101B6000CF93DF937C01D22E8B01040F111DEB016B
:101B700077FF02C0D0E0C0E0C8010134110514F0C5
:101B800080E490E0C817D9075CF480E8E816F10417
:101B900028F44D2DBE01C7010E94D50C2196ECCF33
:101BA000DF91CF911F910F91FF90EF90DF900895FB
:101BB000EF92FF920F931F93CF93DF937C018B01E2
:101BC000C42FD22F6034710510F40E94CA06B801E8
:101BD0006D0F711D615071096034710520F44C2F37
:101BE000C7010E94CA0621E04D2FB801C7010E941B
:101BF000AB0DC7018C0F911D21E04D2FB80101974E
:101C0000DF91CF911F910F91FF90EF900C94AB0D4E
:101C1000089590E080E00895FB0101900020E9F72D
:101C20003197AF01461B570BDC01ED91FC9102800F
:101C3000F381E02D09940F920FB68F939F93EF934A
:101C4000FF9380917A028D5F8D3708F08D578093D6
:101C50007A02EBE7F2E080818E4F808391819F4F83
:101C6000918382818F4F828383818F4F8383EFE7BC
:101C7000F2E080818F5F808381818F4F81838281B9
:101C80008F4F828383818F4F83838FB18F6066995B
:101C90001C9B88278F3681F480917902981B96309F
:101CA00068F0E0E0F8E087E78083818388E1809353
:101CB0006000F0936000FFCF90937902FF91EF9165
:101CC0009F918F910FBE0F9018951F920F920FB694
:101CD0000F9211248F939F938091E1009091E100E6
:101CE000937F9093E10083FF0FC01092E90091E091
:101CF0009093EB001092EC0092E39093ED00109221
:101D0000900298E09093F00082FF22C093E09093BD
:101D1000E9009091F200992319F09AE39093E8007A
:101D200090916901992341F09091690191509093AC
:101D30006901911101C05D9A90918F02992341F040
:101D400090918F02915090938F02911101C0289A27
:101D500084FF18C08091E2008E7E81608093E20053
:101D60008091E1008F7E8093E10080916A018E7EF8
:101D7000806180936A019F918F910F900FBE0F90A9
:101D80001F90189580FFF7CF8091E2008E7E8061D2
:101D90008093E2008091E1008E7E8093E10080914B
:101DA0006A018E7E8160E5CF1F920F920FB60F926F
:101DB0001124CF92DF92EF92FF920F931F932F93F4
:101DC0003F934F935F936F937F938F939F93AF93C3
:101DD000BF93EF93FF93CF93DF93CDB7DEB76C97AD
:101DE000DEBFCDBF1092E9008091E80083FF25C0DF
:101DF00068E0CE0145960E941D0882EF8093E800BE
:101E00008D8987FF39C09091E80090FFFCCF982F13
:101E1000907609F034C19E894F89588D2F89F88CAE
:101E2000911131C0803861F580916B018093F10090
:101E30001092F1008EEF8093E8006C960FB6F89444
:101E4000DEBF0FBECDBFDF91CF91FF91EF91BF916C
:101E5000AF919F918F917F916F915F914F913F9142
:101E60002F911F910F91FF90EF90DF90CF900F90E7
:101E70000FBE0F901F9018959EEF9093E800C7CF6C
:101E80001092F100D5CF913059F48111D3CF413068
:101E9000510581F680916B018D7F80936B01CACFD4
:101EA000933049F48111C6CF4130510519F6809124
:101EB0006B018260F2CF953041F48091E80080FFA1
:101EC000FCCF20682093E300B5CF963009F0A9C07D
:101ED0000B8D1C8D22E01092E90010926701109288
:101EE0006601F2122EC010926501109264010E94E8
:101EF000EC071F8299E09983FA8291E09E8390EA31
:101F000098879AEF99872091660130916701275F42
:101F10003F4F3C832B838D831092E9001092670121
:101F200010926601109365010093640149E050E04E
:101F3000BE016F5F7F4F80E00E94C6070E94EC07E2
:101F400079CF10936501009364010E945807DC016A
:101F500012960D911C910115110509F451C1D8017A
:101F6000ED91FC910480F581E02DBE016B5E7F4F09
:101F7000C8010995009709F03EC1F8010085118557
:101F8000EACFF3E0FF120EC08F89882309F440C026
:101F9000823061F440E867E08CE19AE00E9406112B
:101FA000811148CF81E28093EB0047CF813029F443
:101FB00040E86BE080E19AE0F1CF833099F70E942E
:101FC0005807DC011296ED90FC908E010F5F1F4FB9
:101FD0006801E114F10479F0D701ED91FC910680DC
:101FE000F781E02DB801C7010995080F111DF70110
:101FF000E084F184EECFD8011C92F601019000201C
:10200000E9F73197BF016C197D0940E0C601C6CFE1
:102010006AEF79E0FB01449150E080E80E94C60736
:1020200009CF973009F4BECF983021F481E0809336
:10203000F10000CF993009F0FDCE837009F0B2CFE6
:10204000E3E1F1E081E031E096E32191222371F0B8
:102050008093E9003093EB00DF0111972C912093DE
:10206000EC009093ED008F5F873079F78EE78093D7
:10207000EA001092EA008F8980939002DBCE8B8D6C
:102080009C8D1092E9001092670110926601909366
:10209000650180936401898D811192C08E899D892B
:1020A000913A49F4813209F07DCF47E050E064E095
:1020B00071E080E0B3CF913209F074CF833269F4DC
:1020C0008F89988DB0E0A0E080930001909301018A
:1020D000A0930201B0930301ADCE803269F48091E8
:1020E000E80082FFFCCF67E084E091E00E941D08D9
:1020F0008BEF8093E8009ECE823209F09BCE8F89D1
:1021000080930B01EEEFFFE7859194918B3F9C4DFF
:1021100051F1E0E0F8E08091040190910501A09177
:102120000601B0910701803B9440A105B105F1F48F
:1021300080910B0180FD1AC0EE3F8AE0F80789F517
:1021400087E797E79183808380916000809368019F
:1021500088E19BE00FB6F894A895809360000FBECD
:102160009093600067CEEEEFFAE0D5CF8081918149
:102170008737974709F05ECEA89580916000886107
:10218000809360008091680180936000EE3F2AE0B8
:10219000F20789F08091FE0A9091FF0A9183808373
:1021A00049CE808191818737980751F29093FF0A39
:1021B0008093FE0AC5CF1092FF0A1092FE0A3ACE13
:1021C0000E945807DC0112960D911C910115110512
:1021D00009F4E8CED801ED91FC910190F081E02D59
:1021E000BE016B5E7F4FC8010995811123CEF801B6
:1021F00000851185EBCF181619060CF41BCED2CE34
:10220000F1E0FF12BECE6EEF79E004CFEF92FF92C5
:102210000F931F93CF93DF93F82E192FE62E042FE1
:1022200081E0860F880F0E94980783E00E9498073C
:10223000CF2DD12FEC0EFD2EF11CCE15DF05B9F000
:1022400007FF13C0FE0184910E949807182F80E0B9
:102250000E949807812321968111EFCFDF91CF91C2
:102260001F910F91FF90EF9008958881EDCF81E04D
:10227000F5CFE1E9F2E01382128288EE93E0A0E06C
:10228000B0E084839583A683B7838DE191E0918349
:1022900080838FEF9FEF95878487E5EFF6E01382C9
:1022A00012828BE391E091838083E1EEF6E013826A
:1022B00012828FE291E09183808381EE92E0968397
:1022C000858380E890E09087878380E490E0928720
:1022D000818785E0838B81E0828B16861586108A44
:1022E000178614861386818B14820895CDB7DEB7C6
:1022F0006297DEBFCDBF789483E084BD83E085BD67
:1023000081E080936E00E1E8F0E083E08083E0E824
:1023100081E08083E1E983E08083E0E981E08083FC
:10232000E1EC87E08083E3EC81E08083E0EC82E015
:102330008083E2EC81E08083EAE787E08083806845
:1023400080831092900210926B0110926A0180912A
:10235000D70081608093D70080EA8093D80089B548
:10236000806189BD89B5826089BD09B400FEFDCF59
:1023700081E090E00E946C078091D8008F7C8061A2
:102380008093D8008091E000807F8093E00080916E
:10239000E1008E7E8093E1008DE08093E200559A0B
:1023A000209A81EC80937C0081EF85B987EE84B917
:1023B00082E38BB982EF8AB9769A6E9880EF81BBFF
:1023C00010BA80E58CBD81E08DBD85E00E94C20C15
:1023D0005F9A85E00E94C20C5C98E4EDFAE085917A
:1023E0008EBD00000DB407FEFDCFE13EC1F75C9A43
:1023F00081E88093640081E0809365000E94A80DCD
:1024000080E80E949D0D882381F085EA0E94CD0C12
:102410002E982F982D98809164008062809364009C
:1024200081E083BF889513BEFCCF84E00E949D0DA0
:102430008823B9F12D9884E80E949D0D8823A1F08E
:102440002D9A88EC0E94C20C2F986FEF82E090E0EA
:102450000E945D1884EF91E00E946C072F9A84E837
:102460000E949D0D8111FBCF84E10E949D0D882368
:10247000A1F02D9A88EC0E94C20C2E9860E082E0B8
:1024800090E00E945D1884EF91E00E946C072E9A04
:1024900084E10E949D0D8111FBCF88EC0E94C20C4B
:1024A000C4CF2D9A82E090E00E945518882309F449
:1024B00098C03E9A3F9A81E090E00E945518282FDC
:1024C0002470922E81FF0CC021112E9801EF1FEF76
:1024D00080E40E949D0D882309F486C02E9A2F9ACD
:1024E00082E30E94C20C0E94C50C8111F9CF80E1E9
:1024F00080930C010E9401071092740210927302E3
:1025000010927202109271026AE270E080E090E034
:102510000E944C1804E711E0A2E8CA2EA2E0DA2ECD
:10252000B4E14B2E512C612C712CF12CE12C0E942A
:10253000FD175801AE0CBF1CA30192010E946F1839
:10254000D5016C93BFEFEB1AFB0AEFE1EE16F10435
:1025500071F7025E1F4FC016D10639F71092700155
:10256000109265021092640269E370E380E090E0EB
:102570000E944C181092710110927802109273010F
:102580001092720188E99AE3909367028093660241
:1025900020E43CE9309369022093680210926B02B8
:1025A00010926A0290936D0280936C0282E3809392
:1025B0006F0288EC80936E021092700222242A949B
:1025C000322C412C512C80916C01882309F4ABC032
:1025D00010926C0180E090E0892BA9F30E9400002A
:1025E000F2CF3E983F9867CF992029F0043011052B
:1025F00011F42E9A2F9881E00E940E07302F377029
:10260000832EC80123E0959587952A95E1F7AC01C3
:102610005695542F44275795479570E060E08E3FBC
:10262000AFEF9A0791F1DA01AF51BD4F30E020E0F2
:10263000FB01EC5DF54F7F01FA01EF59FC4F6F0193
:10264000F701E20FF31FE491F0E03F01082C02C014
:10265000660C771C0A94E2F78F3F980739F054967E
:10266000BC905497B6285496BC925497882039F061
:102670005601A20EB31EF50164887628748A2F5F76
:102680003F4F119628353105D9F60196685A7F4F8C
:1026900040585F4F603B710509F0C1CF0E94A80D03
:1026A0008FE00E94C20C0F5F1F4F0931110509F026
:1026B0000FCF992011F02F9A2D9880E991E00E9478
:1026C0006C072D9A81E090E00E94551880FF08CF9A
:1026D0008AE090E00E9455189FEF980F9E3F08F007
:1026E000FFCE22E330E0309372022093710228E3A0
:1026F00030E030937402209373020AE010E0682FF8
:1027000085EF96E00E94EB0C0F5F1F4FC8010E94FF
:1027100055180031110599F70E94A80D88EE93E035
:102720000E946C07DDCE90917B0280916D01F92FA4
:10273000F81B8F2F20910C01F21748F48F5F82173E
:1027400008F048CF81E083BF889513BE43CF11E0E6
:1027500010936C0190936D01EEE6F1E08081918120
:1027600001968083918380917602809375020E9406
:10277000C50C809376020E94010710927402109299
:102780007302109272021092710280917802882373
:10279000A9F0813009F452C080916E0190916F01CF
:1027A00087709927892B39F480917702833008F458
:1027B000D4C3109277020E94A80D0CCF24E030E021
:1027C000309372022093710230937402209373024B
:1027D00082E080930D0163E471E085EF96E00E9452
:1027E0000C0E46E150E050937202409371025093F8
:1027F00074024093730269E471E085EF96E00E94F1
:102800000C0E8EE190E09093720280937102A8E228
:10281000B0E0B0937402A093730210930D0162E5CF
:1028200071E085EF96E00E940C0E88E00E94920D08
:10283000882309F4B1CF10937802AECF8091700154
:10284000873008F032C38F5F80937001912C812C08
:10285000D12CC12CE0906402F09065028701E4E085
:1028600016950795EA95E1F70C191D0917FF02C0A7
:10287000025E1F4FE0EFEE2AFF24FA94E80CF91CE9
:102880000C581E4F7AEFA72EBB24BA94D801EC91B6
:10289000E53068F4F0E0EE0FFF1FEF51F54F459182
:1028A000549120917702B701C5010E945B0C025E32
:1028B0001F4FB0E1AB0EB11CEAE7AE16B10431F721
:1028C000FFEFCF1ADF0A20E1820E911C35E0C3161C
:1028D000D10409F0BFCF81E080930D0107E610E03D
:1028E00020E045E070E060E0C8010E94AB0D0F5FA2
:1028F0001F4F00381105A1F780917201909173016B
:102900000A9708F4E7C28AE000E810E0081B110902
:1029100020E045E066E070E0C8010E94AB0D0F5F6B
:102920001F4F00381105A1F748E650E05093EF061D
:102930004093EE065093ED064093EC061092F1069C
:102940001092F0066AE571E081EE96E00E940C0EAE
:1029500088E690E09093EF068093EE069093ED0664
:102960008093EC06A5E0B0E0B093F106A093F006EA
:10297000809173018F93809172018F9380E691E033
:102980009F938F93E1E0F0E0EC0FFD1FFF93EF9337
:102990000E940019BE016F5F7F4F81E992E00E94A3
:1029A0000C0EBE016F5F7F4F81EE96E00E940C0E11
:1029B00080916E0281500F900F900F900F900F90AA
:1029C0000F9009F489C280936E0280E80E949D0DE9
:1029D000E82EF12C80E10E949D0D81117FC2F194BF
:1029E000E194F10880E20E949D0DC82ED12C80E474
:1029F0000E949D0D002711270C191D09882321F025
:102A000001E010E00C191D0988E00E94920D882356
:102A100019F081E0809370028091750283FF05C0F8
:102A20008091760283FF1092700284E00E94920DE2
:102A3000882309F45AC2809166029091670280321D
:102A40003EE4930708F451C280529E44909367027B
:102A50008093660287EA0E94CD0C86E08093710124
:102A6000E114F10421F087E00115110509F48AE071
:102A700090916F02899FC0011124E89EA001E99EF8
:102A8000500DF89E500D1124089F9001099F300DA4
:102A9000189F300D1124A0E080916C0290916D027E
:102AA000BA01680F791F84279527FB01E427F527D2
:102AB000809590958E239F2397FDA1E0A11119C2C7
:102AC00070936D0260936C02E0E080916A029091D5
:102AD0006B02B901680F791F82279327AB01422748
:102AE0005327809590958423952397FDE1E0E1118C
:102AF0000CC270936B0260936A02609070027090D7
:102B0000770220916C0230916D02032E000C440B71
:102B1000550B30584F4F5F4FA8E3B0E00E948E181E
:102B2000A20191010E946F18690120916A023091FF
:102B30006B02032E000C440B550B30584F4F5F4F68
:102B4000A4E6B0E00E948E18A20191010E946F18C5
:102B50004901662009F1272D4DED5CE0B6018401A5
:102B600001501109C8010E945B0C272D4BE85CE065
:102B7000B601C8010E948D0C272D4DED5CE0B60119
:102B8000075F1F4FC8010E945B0C272D4BE85CE0DC
:102B9000B601C8010E948D0C809168029091690273
:102BA000272D893C4FEA940708F4BBC149E45CE057
:102BB000B601C4010E945B0C272D4FEF5BE0B6010C
:102BC000C40101970E948D0C10917101112369F0CD
:102BD000B6016A5F7F4FC401049620E04DEE5AE0D3
:102BE0000E945B0C115010937101662009F4B4C06F
:102BF00020916A0230916B02032E000C440B550B9E
:102C000030584F4F5F4FA4E6B0E00E948E18A201EB
:102C100091010E946F18390120916C0230916D0270
:102C2000032E000C440B550B30584F4F5F4FA8E359
:102C3000B0E00E948E18A20191010E946F185AEF15
:102C4000E52EFF24FA94B12CA12C78866F82C30163
:102C500040969E878D87D9015096B88BAF874901E2
:102C6000BCE08B0E911CF7013296FA87E987970139
:102C70002E5E3F4F3C872B87D12CC12C3EE13A9DE5
:102C8000C0013B9D900D1124AC014C585E4F5A8BF6
:102C9000498B8091640290916502AD85BE85E9857E
:102CA000FA85EA17FB070CF044C02F8138854B8565
:102CB0005C8524173507ECF5960144E0220F331F9D
:102CC0004A95E1F78C01006F1F6F020F131FAF854C
:102CD000B8890A171B076CF59801205F3F4F8216D1
:102CE00093063CF524E0969587952A95E1F78C1993
:102CF0009D0997FD4E96E989FA898E0F9F1FDC0189
:102D00008C918330B0F4809172019091730101969F
:102D1000909373018093720124E040E1B4018F81AC
:102D200098850E94D80D20E140E1B801C7010E94BA
:102D3000D80DBFEFCB1ADB0AE5E0CE16D10409F0BF
:102D4000A8CFFFEFAF1ABF0A20E1E20EF11C38E076
:102D5000A316B10409F087CF80E02091680230917A
:102D600069028901085211092017310708F481E02E
:102D7000109369020093680281111092780220E09A
:102D8000809166029091670288539F4F883C91051D
:102D900008F421E02111DEC090936702809366025F
:102DA00088E00E949D0D882379F080E098012253ED
:102DB00031090217130708F481E030936902209368
:102DC000680281111092780204E710E020E04FE3DE
:102DD0006AE070E0C8010E94AB0D0F5F1F4F0E3715
:102DE0001105A1F72091680230916902ADE2B0E0CF
:102DF0000E94C318A20191010E946F184901D22EAE
:102E00002EE245E062E170E085E790E00E94D80D97
:102E10008FE390E07C01E818F90805E710E021E075
:102E20004D2DB701C8010E94AB0D0F5F1F4F0A3730
:102E30001105A9F720E046E35DE06AE070E085E770
:102E400090E00E945B0C2091660230916702ADE237
:102E5000B0E00E94C318A20191010E946F184901BD
:102E6000D22E2EE245E062E170E08BE790E00E9416
:102E7000D80D8FE390E07C01E818F9080BE710E02B
:102E800021E04D2DB701C8010E94AB0D0F5F1F4F10
:102E900000381105A9F720E04FE25DE06AE070E03C
:102EA0008BE790E00E945B0C77CC8091640290915C
:102EB000650210927001803EB1E09B0730F40196EC
:102EC0009093650280936402C1CC109265021092C7
:102ED0006402BCCC85E018CD8FEF75CD81E090E029
:102EE0009C012E193F0979017DCD86EA0E94CD0C07
:102EF000B7CD8FEF9FE71416150614F080E090E829
:102F000090936D0280936C02DFCD8FEF9FE71216D6
:102F1000130614F080E090E890936B0280936A02AD
:102F2000ECCD893A914660F04DEB5BE0B601C4010F
:102F30000E945B0C272D4BE75BE0B601C40142CE3B
:102F400049E35BE0B601C4010E945B0C272D47EF0B
:102F50005AE0F3CF8FEF9FEF1FCF8F5F8093770201
:102F60002ACC8F929F92AF92BF92CF92DF92EF9234
:102F7000FF92CF93DF93EC01688179818A819B81F5
:102F8000611571058105910521F464E279ED8BE508
:102F900097E02DE133EF41E050E00E946F184901C6
:102FA0005A019B01AC01A7EAB1E40E948E186B01A3
:102FB0007C01ACEEB4EFA50194010E949C18C60EF2
:102FC000D71EE81EF91EF7FE06C081E0C81AD10818
:102FD000E10880E8F80AC882D982EA82FB82C70148
:102FE000B6019F77DF91CF91FF90EF90DF90CF9068
:102FF000BF90AF909F908F9008958F929F92AF92C5
:10300000BF92CF92DF92EF92FF9260910E0170918A
:103010000F018091100190911101611571058105D9
:10302000910521F464E279ED8BE597E02DE133EF32
:1030300041E050E00E946F1849015A019B01AC0128
:10304000A7EAB1E40E948E186B017C01ACEEB4EFEC
:10305000A50194010E949C18C60ED71EE81EF91EF9
:10306000F7FE06C081E0C81AD108E10880E8F80A36
:10307000C0920E01D0920F01E0921001F092110166
:10308000C701B6019F77FF90EF90DF90CF90BF9080
:10309000AF909F908F90089560930E0170930F01F1
:1030A00080931001909311010895F999FECF92BD7C
:1030B00081BDF89A992780B50895262FF999FECFFA
:1030C00092BD81BDF89A019700B4021639F01FBA7B
:1030D00020BD0FB6F894FA9AF99A0FBE0895052EFE
:1030E00097FB1EF400940E94861857FD07D00E949B
:1030F000A11807FC03D04EF40C9486185095409507
:10310000309521953F4F4F4F5F4F08959095809593
:10311000709561957F4F8F4F9F4F08950E94C31800
:10312000A59F900DB49F900DA49F800D911D11241B
:103130000895B7FF0C948E180E948E18821B930B73
:103140000895A1E21A2EAA1BBB1BFD010DC0AA1FE8
:10315000BB1FEE1FFF1FA217B307E407F50720F000
:10316000A21BB30BE40BF50B661F771F881F991F7B
:103170001A9469F760957095809590959B01AC01C4
:10318000BD01CF010895A29FB001B39FC001A39FCD
:10319000700D811D1124911DB29F700D811D112490
:1031A000911D089597FB072E16F4009407D077FD24
:1031B00009D00E94E61807FC05D03EF49095819551
:1031C0009F4F0895709561957F4F0895AA1BBB1B73
:1031D00051E107C0AA1FBB1FA617B70710F0A61B17
:1031E000B70B881F991F5A95A9F780959095BC0138
:1031F000CD010895EE0FFF1F0590F491E02D099485
:10320000AEE0B0E0E6E0F9E10C94AF1B0D891E8959
:1032100086E08C831A8309838FEF9FE79E838D83DB
:10322000AE01475E5F4F6F89788DCE0101960E9497
:1032300023192F813885020F131FF80110822E9653
:10324000E4E00C94CB1BABE0B0E0E9E2F9E10C94D4
:10325000A11B7C013B018A01FC011782168283813C
:1032600081FFC8C1CE0101965C01F7019381F30192
:1032700093FD859193FF81913F01882309F453C108
:10328000853239F493FD859193FF81913F01853219
:1032900029F4B70190E00E94131BE7CF912C212C59
:1032A000312CFFE1F31538F08B3211F190F48032BC
:1032B00009F1833229F137FC3CC020ED280F2A3078
:1032C00050F536FE20C08AE0989E200D1124922EE3
:1032D00006C08D3291F0803371F7689430F8F301B5
:1032E00093FD859193FF81913F018111DACF21C038
:1032F000689431F8689432F8F2CF689433F8EFCFDD
:10330000689434F8ECCFEAE02E9E200D1124222E92
:10331000689435F8E4CF8E3229F436FC04C1689401
:1033200036F8DDCF8C3619F4689437F8D8CF883664
:10333000B1F2982F9F7D95549330E0F08336A1F140
:103340008337C1F1833509F063C02801F2E04F0EE5
:10335000511CF801C080D180692D70E036FC02C09C
:103360006FEF7FEFC6010E94FD1A4C01689437F899
:1033700082010AC00C5F1F4FFFE3F9838824839406
:10338000912C6501E89437F833FE2DC0522C81143E
:10339000910471F5552009F468CFB70180E290E0FF
:1033A0000E94131B5A94F6CFF801808189830E5F27
:1033B0001F4FE4CF2801F2E04F0E511CF801C080EE
:1033C000D180692D70E036FC02C06FEF7FEFC6013F
:1033D0000E94081B4C018201D5CFB70180E290E02A
:1033E0000E94131B2A942814190409F0B0F7CECFB9
:1033F000F60137FC859137FE81916F01B70190E0AE
:103400000E94131B51105A94F1E08F1A9108BFCFFC
:10341000843619F0893609F077C0F80137FE6BC0A1
:1034200060817181828193810C5F1F4FF32DFF7644
:103430003F2E97FF09C090958095709561957F4FBD
:103440008F4F9F4F689437F82AE030E0A5010E9423
:10345000431BC82ECA188C2C432C36FE0CC0E89493
:1034600040F8C91440F434FE05C032FC03C0F32D0B
:10347000FE7E4F2E892C44FE95C0FE01EC0DF11D01
:103480008081803309F087C0242D297E422E842D2F
:103490008870582E43FC95C040FE8FC09C2C82142F
:1034A00018F42C0C922C981844FE91C0B70180E3BC
:1034B00090E00E94131B42FE09C088E790E041FEA5
:1034C00002C088E590E0B7010E94131BC91408F4FC
:1034D0008AC0CA94D12C9FEFC91AD90ACA0CDB1C26
:1034E000F60182916F01B70190E00E94131BAC14AA
:1034F000BD04B1F74FCF60817181072E000C880B9E
:10350000990B0E5F1F4F92CFD32CE894D4F82AE08A
:1035100030E0853739F1232D297FD22E8F3601F106
:1035200048F48835A9F0F701868197812B96E2E16E
:103530000C94BD1B803749F08837A9F7D4FE02C030
:103540006894D2F820E130E00DC06894D4F8F6CF4A
:1035500034FE03C0822F8660D82E20E132E002C004
:1035600028E030E0F801D7FE0FC0608171818281D0
:1035700093810C5F1F4FA5010E94431BC82ECA18E0
:103580003D2CE89437F867CF6081718190E080E04E
:103590000E5F1F4FF0CF42FC02C0839478CF83941C
:1035A000839475CF842D867809F471CFF6CFB70157
:1035B00080E290E00E94131B83948214C0F3512C8C
:1035C00073CF522C5818821408F46ECFF8CF842D84
:1035D000867809F47BCF8BE241FE80E247FC8DE2E6
:1035E000B70190E071CFB70180E390E00E94131B18
:1035F0009A946CCF8FEF9FEF99CFFC0105906150AB
:1036000070400110D8F7809590958E0F9F1F0895F8
:10361000FC016150704001900110D8F780959095A1
:103620008E0F9F1F08950F931F93CF93DF93182F33
:10363000092FEB018B8181FD09C01FEF0FEF812F57
:10364000902FDF91CF911F910F91089582FF14C0A9
:103650002E813F818C819D81281739073CF4E881B8
:10366000F981CF0101969983888310838E819F8190
:1036700001969F838E83E3CFE885F985812F099595
:10368000892BA1F3DACFFA01AA27283051F1203192
:1036900081F1E8946F936E7F6E5F7F4F8F4F9F4FE6
:1036A000AF4FB1E03ED0B4E03CD0670F781F891F28
:1036B0009A1FA11D680F791F8A1F911DA11D6A0FF6
:1036C000711D811D911DA11D20D009F468943F91A9
:1036D0002AE0269F11243019305D3193DEF6CF01A8
:1036E0000895462F4770405D4193B3E00FD0C9F76E
:1036F000F6CF462F4F70405D4A3318F0495D31FDDB
:103700004052419302D0A9F7EACFB4E0A69597952D
:10371000879577956795BA95C9F700976105710503
:1037200008959B01AC010A2E06945795479537954D
:103730002795BA95C9F7620F731F841F951FA01DA7
:1037400008952F923F924F925F926F927F928F9245
:103750009F92AF92BF92CF92DF92EF92FF920F9320
:103760001F93CF93DF93CDB7DEB7CA1BDB0B0FB62A
:10377000F894DEBF0FBECDBF09942A8839884888E7
:103780005F846E847D848C849B84AA84B984C8847D
:10379000DF80EE80FD800C811B81AA81B981CE0F74
:1037A000D11D0FB6F894DEBF0FBECDBFED01089559
:0437B000F894FFCFBB
:1037B400FFFFFFFF00E10000000000001001010016
:1037C400000000C1808100000000000000DA0857FA
:1037D40008FB08F0084109FF081D0900000000C9A2
:1037E400092A08090E080E00000000EB0C2A08093B
:1037F4000E080E53746F726D006F70657261746F92
:103804007200737461727420410053434F52450037
:0438140025356400F2
:00000001FF
